:020000040800F2
:10000000001100204D1100087F2A0008211100086E
:100010002111000821110008211100080000000032
:10002000000000000000000000000000590E000861
:100030002111000800000000050E0008D919000871
:10004000090F0008090F0008090F0008090F000830
:10005000090F0008090F0008090F0008090F000820
:10006000090F0008090F0008090F0008090F000810
:10007000090F0008090F0008090F0008090F000800
:10008000090F0008090F0008090F0008090F0008F0
:10009000090F0008090F0008090F0008090F0008E0
:1000A000090F0008090F0008090F0008090F0008D0
:1000B000090F0008090F0008090F0008090F0008C0
:1000C000090F0008090F0008090F0008090F0008B0
:1000D000090F0008090F0008090F0008090F0008A0
:1000E000090F0008090F0008090F0008090F000890
:1000F000090F0008090F0008090F0008090F000880
:10010000090F0008090F0008090F0008090F00086F
:10011000090F0008090F0008090F0008090F00085F
:10012000090F0008090F0008090F0008090F00084F
:10013000090F0008090F0008090F0008090F00083F
:10014000090F0008090F0008090F0008090F00082F
:10015000090F0008090F0008090F0008090F00081F
:10016000090F0008090F0008090F0008090F00080F
:10017000090F0008090F0008090F0008090F0008FF
:10018000090F0008090F0008090F0008090F0008EF
:10019000090F0008090F0008090F0008090F0008DF
:0C01A000090F0008090F0008090F0008F3
:1001AC0053B94AB9002908BF00281CBF4FF0FF31D2
:1001BC004FF0FF3000F00CB8ADF1080C6DE904CE37
:1001CC0000F008F8DDF804E0DDE9022304B0704724
:1001DC00704700BF2DE9F04786468C460846089EBE
:1001EC00154674461946002B40F0C2808542B2FA7F
:1001FC0082F245D94AB1C2F1200300FA02FC2EFA70
:10020C0003F3954043EA0C0C94404FEA154EA8B208
:10021C00BCFBFEF8230C0EFB18CC08FB00F943EAE0
:10022C000C43994528D9EB1808F1FF3704D29945AE
:10023C0002D9A8F102072B44A3EB0903A4B2B3FB28
:10024C00FEFC0EFB1C330CFB00F044EA0344A04202
:10025C0014D92C190CF1FF3304D2A04202D9ACF101
:10026C0002032C44241A43EA07401EB1D440002355
:10027C0034607360BDE8F0874746DDE76346F1E71D
:10028C0092BB431B01214FEA154EAFB2B3FBFEFCF0
:10029C00200C0EFB1C330CFB07F840EA034398457B
:1002AC0062D9EB180CF1FF3004D2984502D9ACF1AD
:1002BC0002002B44A3EB0803A4B2B3FBFEFC0EFB21
:1002CC001C330CFB07F744EA0344A7424ED92C1904
:1002DC000CF1FF3304D2A74202D9ACF102032C4437
:1002EC00E41B43EA0040C0E7C2F1200320FA03F10B
:1002FC00954090402EFA03F303434FEA154EAFB2EC
:10030C00B1FBFEFC0EFB1C10190C0CFB07F841EAB0
:10031C000041884504FA02F422D969180CF1FF3027
:10032C0004D2884502D9ACF102002944A1EB0801A2
:10033C009BB2B1FBFEFC0EFB1C110CFB07F743EA56
:10034C0001439F420ED9EB180CF1FF3104D29F42AE
:10035C0002D9ACF102012B44DB1B41EA004192E7CC
:10036C006046E3E76146F7E76046A3E76346B7E715
:10037C00834206D916B9002108467BE7C6E900E09E
:10038C00F9E7B3FA83F78FB9834201D3724508D8E2
:10039C00BEEB020460EB030301209C461EB9002156
:1003AC0068E73846FAE7C6E9004CF8E7C7F1200CD5
:1003BC00BB4022FA0CF41C432EFA0CF120FA0CF37D
:1003CC00B84001434FEA14490EFA07F5B3FBF9F8AC
:1003DC001FFA84FE09FB18300B0C08FB0EFA43EADB
:1003EC0000439A4502FA07F240D9E31808F1FF30AE
:1003FC0004D29A4502D9A8F102002344A3EB0A03C4
:10040C0089B2B3FBF9F809FB183308FB0EFE41EA7D
:10041C0003418E452CD9611808F1FF3304D28E4567
:10042C0002D9A8F10203214443EA0040A0FB029840
:10043C00A1EB0E014145CE46434602D306D14D45B4
:10044C0004D2B9EB020E68EB04030138002EA6D0DF
:10045C00B5EB0E0261EB030101FA0CFC22FA07F377
:10046C004CEA0303F940C6E9003198E74046C5E77A
:10047C004346D9E738B54FF480311F481F4D204C07
:10048C0002F03BFA01461F4802F072FA4FF4803139
:10049C001D4802F032FA01461C4802F069FA4FF48A
:1004AC0000311B4802F029FA01461A4802F060FAA2
:1004BC004FF40031184802F020FA0146174802F0B8
:1004CC0057FA174802F054FA0021284602F02AFA8B
:1004DC0000210246204602F039FA0121284602F09A
:1004EC0021FA01210246204602F030FA00210A20AE
:1004FC0002F014F8E8E700BF603700082433000866
:10050C005433000836390008583700085C390008A5
:10051C00503700088239000848370008A93900080C
:10052C00D03900080B6801330B60014B1B6818476E
:10053C0000000020014B1860704700BF0000002035
:10054C0007B50B46002102460191034801A900F0B2
:10055C0005F803B05DF804FB310500082DE9F04FF8
:10056C00814695B08B4617461C460025387808B94D
:10057C00284658E37B1C2528039306D05946C847C8
:10058C000028C0F25083013504E2182200210EA885
:10059C0002F091FA7B78252B7DD00023781C9846AD
:1005AC009E469C461E46014610F8012B2B2A00F055
:1005BC00A18000F29880202A00F09F80232A00F06E
:1005CC009F802BB19DF8403043F040038DF84030B4
:1005DC00B8F1000F05D09DF8403043F020038DF8A2
:1005EC004030BEF1000F05D09DF8403043F01003B1
:1005FC008DF84030BCF1000F05D09DF8403043F031
:10060C0008038DF840302EB19DF8403043F00403C0
:10061C008DF840309DF8403003F04400442803D15D
:10062C006FF386138DF840309DF840302A2A43F042
:10063C0080038DF840307FD19DF8412042F00102BB
:10064C004B1C8DF841201A782E2A9DF841200CBFA6
:10065C000121002161F341028DF8412078D15A78B3
:10066C002A2A6ED0013300224FF00A0C194611F8D9
:10067C00010BA0F13006092E40F295809DF8401038
:10068C001292C1F3400040EAD2700A4660F3410274
:10069C008DF840205CE0BA1C03928DF843309DF835
:1006AC004130DA0740F12E8154F8048BB8F1000F79
:1006BC0007DA9DF8402042F004028DF84020C8F182
:1006CC0000085E0740F1278154F804ABBAF1000F23
:1006DC0080F226819DF841306FF341038DF8413053
:1006EC004FF0FF3A1CE12D2A0DD0302A7FF469AF70
:1006FC00012358E74FF0010C55E74FF0010E52E77C
:10070C004FF001084FE701264DE70EFB0262303A2D
:10071C000346184610F8016BA6F1300CBCF1090F1A
:10072C00F3D999428FD09DF840101192D20F62F3F9
:10073C0041018DF8401086E70B4600224FF00A0E5F
:10074C00E7E79DF8412042F004028DF84120023386
:10075C001A786C2A47D02BD8682A31D06A2A4BD009
:10076C004C2A51D01A4612F8013B0392782B9DF873
:10077C0041208DF8433000F2BE806D2B51D8692B8F
:10078C0000F2B980572B67D8412B03D0453B022B85
:10079C0000F2B1809DF84230042262F302038DF81E
:1007AC004230012373E00CFB0202303A0B465DE74A
:1007BC00742A25D07A2AD5D19DF8412006210CE047
:1007CC005A78682A9DF8412006D1012161F3C602AE
:1007DC008DF841200233C5E7022161F3C6028DF882
:1007EC0041200133BEE75A786C2A9DF8412001D193
:1007FC000421EBE70321F0E79DF841200521ECE70C
:10080C009DF841200721E8E7BDF8402022F4F04292
:10081C0022F0020242F4804242F00202ADF8402083
:10082C00DFE76E3BD9B201238B4040F282410B4291
:10083C0037D113F0240F51D1D8075CD59DF8423035
:10084C00032161F302038DF8423002F07803A3F127
:10085C0040014B424B411AE0A3F15801C9B20120AF
:10086C0000FA01F111F4624F94D140F601063142C5
:10087C001DD111F4043F3ED09DF8423060F30203C9
:10088C0002F07802402A8DF8423034D000239DF8D3
:10089C004020C2F340010B4363F341028DF840202A
:1008AC00FDE69DF84230022161F30203E8E79DF872
:1008BC004210022002F0780260F30201402A8DF807
:1008CC00421002BF9DF8401041F001018DF840101C
:1008DC00632BDBD1131E18BF0123D8E79DF84230E0
:1008EC00032161F3020312F0780F8DF8423014BF2C
:1008FC0001230023CBE79DF8403043F001038DF832
:10090C004030C3E79DF94020002AB4BFDDF8448095
:10091C004FF0FF38D5E698077FF5E2AEDDF848A03A
:10092C009DF841100023CDE911339DF8423003F0BE
:10093C000703012BC1F3C30133D1CB1E042B04D805
:10094C00DFE803F0104646101000236801294FEA37
:10095C00E372CDE90E320BD103F0FF030E930023AB
:10096C000F9307E054F8043BDA17CDE90E3202E09E
:10097C00022911D004349DF8403013F0030647D0FF
:10098C00039B3A465946484602F04FF80028C0F2FD
:10099C004A810544039FE9E51AB20E9243F3C03332
:1009AC00DEE7022B24D1CB1E042B04D8DFE803F0A6
:1009BC00181010181800012954F8043B4FF00002CD
:1009CC0014D00229CDE90E32D5D19BB20E93D2E7C9
:1009DC00073424F00704F4E80223CDE90E23CAE718
:1009EC0054F8043B0E9300230F93C4E7DBB2BCE72F
:1009FC00042B08D1073424F00704D4E9002308346D
:100A0C00CDE90E23B7E7032BB5D154F8043BDDE752
:100A1C009DF843007828BDD862281CD825283FF4BF
:100A2C00ADAD5828B6D10DF136030093DDE90E01BA
:100A3C0008AB10AA01F0B3FFBAF1000F074680F221
:100A4C009A80002FA6D00DF13603D81B002E00F093
:100A5C00C1800130BEE0633815289BD801A252F842
:100A6C0020F000BF450B0008570B0008A109000837
:100A7C00A1090008A1090008A1090008570B0008EA
:100A8C00A1090008A1090008A1090008A109000892
:100A9C00E50B00087D0B0008A30B0008A10900085A
:100AAC00A1090008C90A0008A10900087D0B00086B
:100ABC00A1090008A10900087D0B0008BAF1000F7C
:100ACC000E9F35DB5146384601F0E1FF07EB000A7B
:100ADC00002F3FF45FAF00269DF8423013F0100258
:100AEC00059200F0938002305B06119A48BF129B6E
:100AFC000492104448BFC018B8F1000F40F3A08016
:100B0C009DF84020A8EB0008C2F380035007069321
:100B1C0000F19680510640F189803EB1594630462D
:100B2C00C84700287FDB069B01351E4630227EE03D
:100B3C00384601F0A5FFC9E70E9B8DF82030002642
:100B4C0008AF0DF1210A0120C6E719075CBFC3F3FA
:100B5C0000135E01DDE90E2348BF2B26002BBFF6E8
:100B6C0062AF524263EB4303CDE90E232D265AE7C5
:100B7C00002658E700269DF840200DF13603DB1BBC
:100B8C006FF386129A458DF840207FF65AAFAAEB88
:100B9C000303119355E70E9890B30DF136030093B0
:100BAC0010AA08AB002101F0FAFEBDF8423003F0A8
:100BBC00EF0343F4F04343F01003BAF1000F074680
:100BCC00ADF84230D6DA00283FF4E4AE0DF136032E
:100BDC00181A00269A467FE70E9B07293FF6DAAED5
:100BEC00DFE801F00C04060C08080C0C1D70D1E6B3
:100BFC001D80CFE6EA17C3E90052CBE61D60C9E6BB
:100C0C002E4F064607F1050A052065E71A0748BF6F
:100C1C00013069E70793104606925946C8470028E9
:100C2C00DDE9062304DA15B0BDE8F08F2022434637
:100C3C001946002903F1FF33ECDC45446D1A984644
:100C4C002EB159463046C8470028ECDB01359DF8DB
:100C5C004230DA0601D41B0705D559463020C84767
:100C6C000028E0DB0135059B33B19DF84300594664
:100C7C00C8470028D7DB0135049E2E4405E05946B1
:100C8C003020C8470028CEDB0135731B002BF6DC67
:100C9C0053463A465946484601F0C7FE0028C2DB87
:100CAC000544A844A8EB0503002B7FF773AE594607
:100CBC002020C8470028B6DB0135F3E7DD390008F2
:100CCC000C4B1A6842F400721A601A6842F4806283
:100CDC001A604FF01002EFF3118382F31288BFF306
:100CEC006F8F83F31188BFF36F8F034B034A1A6026
:100CFC0000207047003C02402C0000200024F4002F
:100D0C00014910220A60704710ED00E072B64040B5
:100D1C0080F31188BFF36F8FBFF34F8F30BF62B674
:100D2C00BFF36F8F704700BF40B2002807DB044A47
:100D3C004109012300F01F00834042F82130704725
:100D4C0000E100E040B20028A8BF00F1604001F1D2
:100D5C000101B8BF064B4FEA0111ACBF00F5614071
:100D6C0000F00F00C9B2B4BF195480F800137047DB
:100D7C0014ED00E030BFFFF7FDBF00BF0F4A08B510
:100D8C000F4B22F07F029A60BFF34F8FBFF36F8F30
:100D9C00D3F8882022F47002C3F88820EFF3148370
:100DAC0023F0040383F31488BFF36F8F01F042F830
:100DBC0001F032FC00F0B8F901F08AF800000008EC
:100DCC0000ED00E0094A0A499368096899670949E6
:100DDC0058674B6843F080534B60002383F31188B2
:100DEC00BFF36F8F9368986F704700BF00030020AC
:100DFC002C39000800ED00E012498A684FF03000F1
:100E0C001044EFF3098C80E8F01F102080F3128857
:100E1C00BFF36F8F0C4F4FF000668A698A603E609B
:100E2C00506F0023536780F3118804B5104600F00F
:100E3C00BFF9BDE8044002F1300090E8F01F8CF3DC
:100E4C00098870470003002004ED00E01EF0040F39
:100E5C000CBFEFF30880EFF30980816911F8021CD5
:100E6C000229FFD001B501F0FCFD01BD42F8203C88
:100E7C00009B42F81C3C0A49019B42F8183C029B1F
:100E8C0042F8143C21F001014FF0807342F8043C0D
:100E9C0042F8081C0023203A02654367704700BFE4
:100EAC0097290008094A0346906870B113F1160F90
:100EBC00406E05D0A0F140029A4205D8834203D27D
:100ECC00814228BF0020704700207047000300209B
:100EDC0008B5094B0D461446986000F069F9204698
:100EEC0085F30988002163B681F31188BFF36F8FF6
:100EFC000022002301F049FD0003002001B5EFF3AF
:100F0C000580A0F110004FEAC0000449014409C952
:100F1C009847BDE80140024908470000E433000847
:100F2C00310F0008044B99689869884203D0034933
:100F3C004FF080520A6070470003002004ED00E07F
:100F4C000D4B9A6A9A6A9A6A920508D59A6B9A6AB4
:100F5C00120404D518B19A6A22F400429A629A6A71
:100F6C009A6AD205044A58BF9B6A936A002043F4DC
:100F7C007F4393620870704700ED00E01D4B70B525
:100F8C0015469A6A9A6A9A6A9207064622D5586B4F
:100F9C009A6A14061ED519B19A6A22F080029A62D6
:100FAC009A6A9A6A9A6A134C12F0100F15D19B6ABE
:100FBC00990712D40020A36A0E4A9B0642BF636AAB
:100FCC0023F400536362936A43F0FF03936200239C
:100FDC002B7070BD6FF01500E2E763681A05E9D558
:100FEC003146FFF75FFF0028E4D080F30988022028
:100FFC00E1E700BF00ED00E070B5414B5B688AB0E3
:10100C000546C3F30803002686F31188BFF36F8FE0
:10101C0002F07F40B0F17F4F11D102F00C00082894
:10102C000DD010074CBF0D4601260022033B8DF856
:10103C000720032B3BD8DFE803F00453575B3546FE
:10104C00F3E72F4BDA6A910731D4DA6A002A2EDBE8
:10105C00DA6A52002BD5AA6932F8021C4DF60272DC
:10106C0091420AD093F828204AB10DF107020121D0
:10107C002846FFF783FF04461AE02C6818E093F823
:10108C0029202AB10DF107010120FFF759FFF2E7E2
:10109C005A8D92B25AB19A6A9A6A9A6A9A6A9A6AFA
:1010AC009A6A9A6A6FEA02426FEA12429A620024C2
:1010BC009DF8073093B92022294602A801F0F0FCD4
:1010CC00099BBEB1C3F3080222B96FEA53236FEA3E
:1010DC004323099302A9204601F0C1FC0AB070BD5C
:1010EC000DF107020021C3E70DF107010020CCE749
:1010FC00034BD0E723F4FF7323F00103E9E700BFB0
:10110C0000ED00E0024A536943F01003536170474D
:10111C0000ED00E0EFF30880EFF3098101B57246B2
:10112C00FFF76AFF01BD00BF044800231021C2185D
:10113C0001335B2B82F80013F9D1704700E100E01A
:10114C00102080F3118808484FF40461401880F394
:10115C000988EFF314800221084380F31488BFF34D
:10116C006F8FFFF70BFE000040030020084B9B68BD
:10117C0083420BD1EFF3058343B1064B5A6842F01F
:10118C0080525A605A6A22F400425A6201F0E4B961
:10119C000003002000ED00E0024B034A034801214C
:1011AC0000F070B800000320000000206837000831
:1011BC00426E054B403A1A60044A4021C3E90112C1
:1011CC001846012100F068B87801002000000B15CA
:1011DC00F0B5204E00258D4201DB1046F0BD446871
:1011EC0074B353B104F1FF3C14EA0C0F2FD11F2C34
:1011FC002DD907681CEA070F29D1202C0768D0F8D5
:10120C0008C05FFA82FE1ED9B4F1004F1DD8013C14
:10121C00B4FA84F4C4F11F046400BEF1070F4CEA65
:10122C00040C14D827F01F04144344F01004C6F81F
:10123C009820C6F89C404CF00104C6F8A04001323E
:10124C0001350C30C7E70824E7E73E24E5E76FF0EB
:10125C001502C2E700ED00E0044B0522C3F8942010
:10126C00BFF34F8FBFF36F8F704700BF00ED00E0EF
:10127C00BFF35F8F024B0022C3F89420704700BF6E
:10128C0000ED00E010B5034C01232278FFF7A0FF1E
:10129C00207010BD3403002008B5094A00231278D1
:1012AC00FFF796FF10F1160F02D0064A072800DD53
:1012BC0008BDC2F89800C2F8A0300130F6E700BFB4
:1012CC003403002000ED00E014490868082810B52C
:1012DC0021D8FFF7CDFF124C49680022904201F152
:1012EC000C0105D10F4B1870FFF7B6FF002010BD95
:1012FC00C4F8982051F80C3C23F01F03134343F01F
:10130C001003C4F89C3051F8043C43F00103C4F8BA
:10131C00A0300132E2E74FF0FF30E8E77437000805
:10132C0000ED00E034030020014B1860704700BF53
:10133C00040000202DE9F8430D4F04460E461546D7
:10134C004FF0010802F10409B44201DBBDE8F88357
:10135C007A6908FA04F333EA020207D17B6155F883
:10136C0034301BB159F83410204698470134EBE760
:10137C00003C0140044A0123116883400B43136075
:10138C00024B1856FFF7D0BC003C0140103A000845
:10139C001F2806DC034901220B68824023EA020362
:1013AC000B607047003C014003292AD8DFE801F0AC
:1013BC00020E141F134B01229968824021EA02018C
:1013CC009960D96821EA0202DA6070470D4B01225C
:1013DC00996882401143F3E70A4B0122D968824095
:1013EC001143D960996821EA02029A60704701237F
:1013FC0003FA00F0034B9A6802439A60DA681043D0
:10140C00D8607047003C0140074B10B5044653F8B8
:10141C00300028B943F8341003EBC4035A6010BDF4
:10142C006FF00F00FBE700BF84010020034B00228C
:10143C0043F8302003EBC0035A607047840100204E
:10144C0009680C4B40291B680DD008D821F004000A
:10145C00302809D0382907D06FF08500704744290F
:10146C0005D0A829F7E79B081360002070475B089C
:10147C00FAE700BF2C00002070B53A4C3A4E00F051
:10148C008DF800F09BFBA368384AC3F30313D35CBD
:10149C0020FA03F5B54202D8354800F0BDFB2368AD
:1014AC0023F480232360236843F4803323602D4B83
:1014BC001A689403FCD59A6802F00C02082A17D11A
:1014CC009A6822F0F0029A601A68900707D41A689A
:1014DC0042F001021A60234A13689907FCD5214B8C
:1014EC009A6822F003029A609A6812F00C0FFBD1F2
:1014FC001C4C236823F080732360636823F07063B3
:10150C0043F0E063636000F037F8236843F08073C6
:10151C00236023689B01FCD5A36823F0F003A36030
:10152C00A36823F0030343F00203A3600D4CA368EC
:10153C0003F00C03082BFAD1B54202D90C4800F089
:10154C006BFB0C4B0A4A1A60A36823F4E05343F478
:10155C00A053A360A36823F4604343F40043A36047
:10156C00002070BD00380240FF79030A7D3A000864
:10157C00007A030A2C000020054B06495A681140DA
:10158C00054A0A435A605A6822F440325A6070473E
:10159C00003802400080BFFF08544000064B1A6C14
:1015AC0042F080521A641B6C82B003F0805301939A
:1015BC00019B02B0704700BF0038024008B5084BD1
:1015CC000848186001F042FD38B10748FFF7ACFE3F
:1015DC000548FEF7AFFF002008BD6FF01200FBE7D7
:1015EC003C020020CC330008F91500080A2838B555
:1015FC00074D044604D1286883680D215B68984721
:10160C0028688368E1B25B689847204638BD00BF04
:10161C003C02002070B50546074C204601F016FD33
:10162C0030B1A368294620461B68BDE870401847B6
:10163C006FF0120070BD00BF94320008F7B517466A
:10164C00B7F5001F466802690C461D4624D101F00F
:10165C000302043292000F23934043EA9103DAB25F
:10166C003249023251F82220190C02EA134391FA42
:10167C00A1F2B2FA82F2D340B2689A4209D1204662
:10168C00FFF786FE2046FFF7D1FE00212046FFF72C
:10169C008BFE002003B0F0BDB7F5800F3FD024497E
:1016AC002046FFF7B1FE00283CD1224AB66892E8EA
:1016BC0003006B4683E803001846FFF7ABFFC0B985
:1016CC0004F0030304339B000F229A4042EA940275
:1016DC00D3B29B0003F1804303F59C33110C986843
:1016EC0020EA124091FAA1F2B2FA82F29640064335
:1016FC009E60B5F1806F0ED0B5F1C06F0DD005F1C5
:10170C007E435942594149002046FFF74DFE204681
:10171C00FFF730FEBDE70121F6E70321F4E76FF098
:10172C008500B7E76FF00F00B4E700BF0038014049
:10173C00252E0008403700082DE9F341456807695C
:10174C00354CD5F804807C600646204601F07EFCC2
:10175C0000285DD0A36820461B6841469847044684
:10176C0000284CD1014601AAA86901F056FC0028BA
:10177C0001DA044643E0019B22461979186800F00F
:10178C00D7F90028F5DB2B68DA6822F40052DA600E
:10179C0003F10C0252E8002F42F00C0203F10C0092
:1017AC0040E800210029F3D12A69022A2BD0012A12
:1017BC0012BF00204FF480504FF4C061DA68084328
:1017CC0022F4B0520243DA601A6922F440521A61D0
:1017DC002B7B2BB173681A68536943F440735361C4
:1017EC003968304601F0AAFB2A7D2B681AB15A6978
:1017FC0042F008025A61DA6842F40052DA6020467C
:10180C0002B0BDE8F0814FF480504FF48061D5E711
:10181C006FF01204F3E700BF943200082DE9F04199
:10182C000B7945680669012B0C466FD09A1E514204
:10183C0051418902627994F80680022A96BF454F7D
:10184C004FF4005C37F812C0B8F1040F6CD0E77994
:10185C00002B5ED1012F22F0020273D0002A63D03C
:10186C00B8F1020F60D99E462A688FB1DFF8E88084
:10187C0042450BD0A8F54C48424507D008F5806886
:10188C00424503D008F54C4842454DD1012F4BD170
:10189C00D76827F40057D760D76807F4C067B942F8
:1018AC001FBFD76827F4C0673943D160116901F4B1
:1018BC0040518C451FBF116921F4405141EA0C0184
:1018CC001161D16801F4805199421FBFD16821F494
:1018DC0080510B43D3605369216803F440739E45D8
:1018EC001FBF536923F4407343EA0E0353613368FB
:1018FC00994203D001F022FB236833602A68D36835
:10190C0043F40053D3600020BDE8F0814FF4C06174
:10191C0090E7033B012FDBB209D1012B04D94FF423
:10192C00407E12F0FD0F07D16FF08500ECE7012B24
:10193C00FAD94FF0000EF4E7B8F1020FF4D94FF4D6
:10194C00805391E7002AEFD0B8F1020FECD94FF495
:10195C00407E89E730390008001001404FF0E02349
:10196C0010B59A6919699869094B11F4803F0949B6
:10197C0001D1824206D21A680C6822441A604FF0D8
:10198C00E02212691B680A681344181A10BD00BFC4
:10199C00F0020020FC020020094B102283F82320C7
:1019AC00084B44F29F121A60074B002018604FF04E
:1019BC00E0235A6198611A6942F007021A61704774
:1019CC0000ED00E0FC020020F002002008B5FFF75B
:1019DC00C5FF0C4B0C4A18681168084410600022B3
:1019EC001A600A4A136844F2A011C01AB0FBF1F055
:1019FC0001FB0033136000F0FFFEBDE80840FFF769
:101A0C0091BA00BFF0020020F8020020F40200207E
:101A1C002DE9F041324E002955D0421C0AD14FF02D
:101A2C00E022136923F0010313614FF07F4333600D
:101A3C00BDE8F081356801284BDD40F2E5384045C2
:101A4C0001DC00F1FF384FF01003EFF3118483F346
:101A5C001288BFF36F8FFFF781FF224F4FF0E02307
:101A6C000021D3F818C03B68C2181F4B19601F4BDC
:101A7C001B68D11A30D444F2A01000FB081101F5F8
:101A8C0083419B1A1F31B1FBF0F100FB013340F293
:101A9C001A418B4220D916498B4228BF0B464FF076
:101AAC00E02133608869013B4B6100238B618445E5
:101ABC00ACEB000338BF5B191A443A6084F311880D
:101ACC00BFF36F8FB4E7431C3568B4D140F2E530F7
:101ADC00B7E74FF00008B6E740F21A43DFE700BF64
:101AEC00FC020020F8020020F0020020F40200208A
:101AFC002094FF0010B54FF01003EFF3118483F323
:101B0C001288BFF36F8FFFF729FF074B074A1B683B
:101B1C0012689B1A034484F31188BFF36F8F44F24D
:101B2C00A010B3FBF0F010BDF8020020F40200206E
:101B3C002DE9F047204F044600EBC1060025B442C6
:101B4C0001D1002014E02268D10602F01F0911D443
:101B5C00656845F02005C2F3471AC2F343220A2AEE
:101B6C0027D857F82280B8F1000F11D16FF012006E
:101B7C00BDE8F087B9F1100F08D0B9F1110FEAD117
:101B8C0065682B05E7D545F01005E4E73025E2E75D
:101B9C00404601F05BFA0028E8D04B462A460AF092
:101BAC000F01404601F04FF9002804F10804C6DA91
:101BBC00DEE76FF01500DBE7EC380008134908B5D9
:101BCC008B6803F00C03042B1CD0082B1CD14A6827
:101BDC004B68496813F4800314BF0D480D48C1F3DA
:101BEC00881118BF002302F03F02A1FB0001FEF791
:101BFC00D7FA064B5B68C3F3014301335B00B0FBC0
:101C0C00F3F008BD0248FCE70248FAE7003802404E
:101C1C0000127A000024F400002800F0C180614B0F
:101C2C001A6802F44042B2F5404F4FD102F10F62F4
:101C3C0002F58C52904208D91A681B6803F4404391
:101C4C00B3F5804F4FF005033EE0574A90421ED843
:101C5C00564A904223D8564A904228D8554A904228
:101C6C001A6802F4404243D9B2F5004F40F08C8020
:101C7C0001234C4A126802F44042B2F5804F40D125
:101C8C004B4A904264D9012B38BF012339E01A68C2
:101C9C0002F44042B2F5004F66D104230EE01A68FC
:101CAC0002F44042B2F5004F66D1032306E01A68F5
:101CBC0002F44042B2F5004F4ED10223394A126869
:101CCC0002F44042B2F5804F1BD1DCE71A6802F4F3
:101CDC004042B2F5004F2ED102F10F6202F5A34241
:101CEC009042AAD8344A90421DD81B68002308E0C1
:101CFC00B2F5004FF9D1304A9042F6D9294B1B6806
:101D0C0004232E490A6822F00F021A430A600A685B
:101D1C0002F00F0293421CBF0A6802F00F02981ADD
:101D2C0018BF01207047224A90421DD8214B98427F
:101D3C00E4D904239DE71B6803F44043B3F5804FBB
:101D4C00D4D11A4B984227D8194B984226D8002345
:101D5C00184A9042D5D996E71B6803F44043B3F573
:101D6C00804F4FF00203AFE71B6803F44043B3F519
:101D7C00804F4FF00403A7E71B6803F44043B3F50F
:101D8C00804F4FF003039FE71B6803F44043B3F508
:101D9C00804F4FF0010397E7032374E70223B0E76A
:101DAC000120704700700040000E2707804A5D0537
:101DBC000087930380C3C901001BB700003C02409D
:101DCC000E4B70B553F82040013053F82060A642FA
:101DDC0000D870BDD4E900352846984765B1EB684A
:101DEC0030B10028B8BF4042FF28A8BFFF201870B0
:101DFC005A7842F001025A700834E8E718390008A2
:101E0C0008B50A4B012202201A70FFF7D9FF00F027
:101E1C0067FD0320FFF7D4FF00F0F4F8FEF72AFB70
:101E2C00034A137B23F00103137308BD3503002011
:101E3C00F00000200648074A08B5121A002101F0EC
:101E4C0036F90548054A0021121A01F030F908BD8F
:101E5C00700000203803002000000010000000106B
:101E6C0070B5002386B00122CDE90423134E144D26
:101E7C0001930F22CDE902321249182303FB0055BE
:101E8C0006EBC01604464FF4C07000FB04110E4B59
:101E9C0000954FF4A072304600F082F8737B0B4A29
:101EAC00EE6023F0040373734FF4046304FB0333F9
:101EBC0013442C756B6006B070BD00BF7000002021
:101ECC0000030020800B0020C330000840030020DA
:101EDC0080B52C4BA6B083F308882B4D2B4E6B6929
:101EEC002B4F43F4007300246B61F02385F82230F0
:101EFC00EC772C766C76AC7685F820406B6A43F4E4
:101F0C00E0236B62FFF7FEF8FEF7FAFE4FF0FF33AB
:101F1C00AB62EB62FFF7D8F9FFF73EF940F2011321
:101F2C00ADF8243006ABB360CDE91F44229401F028
:101F3C008CF82046FFF744FF0120164DFFF740FFB9
:101F4C0000F05EFA144BB56105930123134900941C
:101F5C00CDE903434FF480623B46CDE9014428466A
:101F6C0000F01EF86A7B064622F0040228466A73CB
:101F7C0001F0E1F82046FFF773FF3A463146284658
:101F8C00FEF7A6FF800B002000ED00E00003002010
:101F9C000D1E0008F00000208D3A0008000D0020F6
:101FAC002DE9FF410E9E0673042646730D9E867323
:101FBC0000F158050F46D61DC0E916550C9A0025A0
:101FCC0026F007064037C0E90655C0E9197685604A
:101FDC00C573C56606F1400802920B9A01928844BB
:101FEC000A9A009242460446FEF740FF044B656590
:101FFC009B6803B11B6F2367404604B0BDE8F081BA
:10200C0000030020F0B5224C224D87B02646AE428C
:10201C0004F130040BD300F0C3F91D4C1E4F0A26FB
:10202C00AC4220D307B0BDE8F04000F0CDB954F875
:10203C00043C059354F8103C049354F8143C03935B
:10204C0054F8183C029354F81C3C019354F8203C6F
:10205C00009354E90A2354E90C01FFF7A1FF54F84B
:10206C00303C5E65D2E7626A531C09D022EAE27208
:10207C0082FB062352EA0301206803D100F040F9E9
:10208C003034CDE73946183000F038FBF8E700BFA4
:10209C007000002070000020FF30000838B5074D9C
:1020AC002C6854B1FFF726FD054B04441C612868CD
:1020BC000021BDE8384001F07AB838BD2C0300206F
:1020CC000003002038B50D4D2B4653F81C4F9C4295
:1020DC0000D004B9EC68AB6838B95A7BD20604D18D
:1020EC00A26912B9DA897F2A05D89C4202D020460F
:1020FC00FFF7D4FF2346AB6138BD00BF00030020BF
:10210C0070B590F90D20437B002A014604DA03F0E8
:10211C007F03437300F0DBFF4B7B154A63F07F03B7
:10212C0010464B7350F81C3F146A834208BF0023BF
:10213C0023B9C1E90004216011620CE091F90E5041
:10214C0093F90E60B5420ED0AE420CDD5868C1E971
:10215C000030016059609068431A5842BDE87040E5
:10216C005841FFF7AFBF9C42E3D01B68E0E700BFCC
:10217C000003002070B490F90D30427B002B29DB5A
:10218C00D30627D183692BBB134962F07F024273BC
:10219C000A4652F81C4F944218BF23460C6A23B9C6
:1021AC00C0E90024206008620CE090F90E5093F90D
:1021BC000E60B5420AD0AE4208DD5A68C0E9003262
:1021CC001060586070BC0020FFF77CBFA342E7D0C2
:1021DC001B68E4E770BC70470003002008B590F959
:1021EC000D20437B002A014604DA03F07F0343737E
:1021FC0000F06DFF044B9868431A58425841BDE8F3
:10220C000840FFF75FBF00BF0003002010B54FF080
:10221C001003EFF3118483F31288BFF36F8F0A233B
:10222C00002800FB03F302DD022BB8BF0223074A90
:10223C000020106106480360064B90681960FFF798
:10224C002DFF84F31188BFF36F8F10BD00030020A6
:10225C002C0300202803002038B54FF01003EFF3B7
:10226C00118583F31288BFF36F8F174B174A9C6845
:10227C0011688C4207D12046FFF710FF85F31188B7
:10228C00BFF36F8F38BD00211160114A1268C2B1C3
:10229C00E2897F2A15D8627BD20612D10D4A94F9B5
:1022AC000E10126891420CDB0B4A944209D01A6949
:1022BC00824203DC2046FFF723FFDCE7121A1A6187
:1022CC00DCE70022FBE700BF000300202403002012
:1022DC002C030020280300207000002049B9EFF3E4
:1022EC00058030B9054B9A699B689A4201D0FEF77C
:1022FC0069BD81F31188BFF36F8F70470003002015
:10230C0010B54FF01002EFF3118482F31288BFF373
:10231C006F8F427B510704D484F31188BFF36F8F06
:10232C0010BD22F004024273FFF724FF214602483D
:10233C00BDE81040FFF7D2BF3603002070B504464D
:10234C00183000F01EFF4FF01003EFF3118683F3EB
:10235C001288BFF36F8F94F90D20637B002A05DA86
:10236C0003F07F036373204600F0B1FE0B4D637BDB
:10237C00A86843F010036373031B58425841FFF7DE
:10238C00A1FE86F31188BFF36F8FAB68A34203D114
:10239C00BDE8704000F0EBBE70BD00BF0003002034
:1023AC004FF01003EFF3118183F31288BFF36F8F9B
:1023BC00044B9A68D37B013BD37381F31188BFF331
:1023CC006F8F70470003002010B54FF01003EFF330
:1023DC00118483F31288BFF36F8F084B9A68D37BF9
:1023EC000133D3730020FFF76DFE84F31188BFF324
:1023FC006F8FBDE8104000F0BABE00BF0003002094
:10240C00044B002103F11C020846C3E90722FFF725
:10241C00FDBE00BF00030020F8B54FF01003EFF332
:10242C00118583F31288BFF36F8F19498868437B3A
:10243C0003F07F03437300F04AFE437B0A4663F0CC
:10244C007F03437352F81C3F0C6A934208BF00236E
:10245C0023B9C0E90024206008620CE090F90E60FA
:10246C0093F90E70BE420ED0B7420CDD5A68C0E92B
:10247C000032106058600120FFF724FE2846BDE8AA
:10248C00F840FEF79FBCA342E3D01B68E0E700BF17
:10249C000003002050EA01032DE9F04105460E46E9
:1024AC0003D1FFF7B9FF00202CE0831C71F1FF333F
:1024BC002ADB00F098FE44194FF01003EFF311885B
:1024CC0083F31288BFF36F8F114F124BB8681860EB
:1024DC00FFF784FEB86810492A463346183000F0DE
:1024EC000DF9BA68537B43F0100353734046FEF763
:1024FC0069FC00F078FE201A63EB0303012873F1EA
:10250C000003D0DBBDE8F0816FF00104241AD3E79F
:10251C000003002024030020FF300008B1F1FF3F2E
:10252C0008BFB0F1FF3F08B506D1074B9868FFF71D
:10253C0005FF4FF0FF3008BDFFF7ACFF0A22002368
:10254C00C117FDF72DFEF6E700030020014B98683C
:10255C00704700BF000300202DE9F04104464FF006
:10256C001003EFF3118683F31288BFF36F8F037B95
:10257C00D9070BD586F31188BFF36F8F404080F3DA
:10258C0011884FF0040002DFBDE8F081437B1A078D
:10259C0004D586F31188BFF36F8FF5E723F0200283
:1025AC0042F00801D20920D14173A36813B120462F
:1025BC0000F095FD04F1180000F0E3FD04F158075C
:1025CC004FF00008A56DBD4200D0B5B90120FFF752
:1025DC0079FD104B9B68A342DBD1EFF30583002BF5
:1025EC00D7D13046FEF7EEFBD3E703F05F0343F0A1
:1025FC000803437300F06BFDD7E7284600F06FFD2E
:10260C0005F1180000F0BDFDC5F878802846FFF7ED
:10261C00B1FDD7E70003002009480A4A0A4908B56A
:10262C00121A00F046FD094A09490A4800F041FD1A
:10263C0009480A4A0A49BDE80840121A00F039BD97
:10264C000000002070000020C83A000800000000C4
:10265C00C83A000800000020000000100000001024
:10266C00383B0008034B1B680BB9FFF743BA00203B
:10267C00704700BF30030020114B10B51C689C4202
:10268C000AD1FFF7EFFF6FF000400E4B1B6913B13F
:10269C009842A8BF184610BDFFF7E4FF002CF2D0FB
:1026AC00D4E904321B1A62EBE072B3F1004F72F101
:1026BC000001E8DA002AACBF18460020E5E700BFAD
:1026CC0030000020000300200B4A0368526890423F
:1026DC0030B509D043B1D3E90421D0E9044512192E
:1026EC0041EB0501C3E90421426813605A600023E1
:1026FC00C0E9003330BD00BF30000020B3F1FF3F14
:10270C0008BFB2F1FF3FF8B504461D46164661D02E
:10271C0081604FF01003EFF3118783F31288BFF33E
:10272C006F8F013275F1FF3324DA3049D1E9002083
:10273C006FF001039B1A4FF0FF3262EB00009E1BFF
:10274C0060EB0500012E70F1000301DA0126002078
:10275C00C4E90460264ED6F800C07568B44508BFBD
:10276C004FF0000CBCF1000F0DD1C4E900652C60DA
:10277C0074601CE0FFF776FF013645F10005361852
:10278C0045EBE070E4E7DCE90420D4E90431934242
:10279C0071EB000E1FDAD21ADCF8043060EB01008A
:1027AC00CCE90420C4E900C31C60CCF804403368B5
:1027BC00B3420BD09C4209D1FFF75EFF18B10D4B11
:1027CC001B69834202D00021FFF722F987F311889D
:1027DC00BFF36F8FF8BD9B1A61EB0001AC45C4E9E8
:1027EC000431C2D0DCF800C0BCE700BF700100208F
:1027FC0030000020000300202DE9F8430546FFF7C8
:10280C002BFD4FF01003EFF3118483F31288BFF309
:10281C006F8F244EDFF890803560244DD8F800007F
:10282C0032684045D5E9001E4FEAE2770BD050B133
:10283C00D0E9043C9A4277EB0C0916DA9B1A6CEB44
:10284C00070CC0E9043C51184EEB0707C5E900170B
:10285C0000253560FFF710FF2946FFF7D9F884F300
:10286C001188BFF36F8FBDE8F88359184EEBE377EF
:10287C00D31A336000220023C0E90423C5E90017F2
:10288C00FFF722FF84F31188BFF36F8F836898479B
:10289C004FF01003EFF3118483F31288BFF36F8FA3
:1028AC00BCE700BF30030020300000207001002086
:1028BC0010B54FF01003EFF3118483F31288BFF3BC
:1028CC006F8FFFF717F9054AD2E90031C01841F1B3
:1028DC00000184F31188BFF36F8F10BD70010020CD
:1028EC00024A0349034800F043B800BFC63A000847
:1028FC00923A0008A03A0008704770B403460C46A0
:10290C00DA88006819792243056986682B680124E6
:10291C008C4012F0010F14BF2343A3432B60336888
:10292C0070BC184737B505690C46836801A95B680C
:10293C00984748B9019B2A685A40012303FA04F1CD
:10294C000A4214BF1846002003B030BD012303FA1D
:10295C0001F103691B68194203D022B183681B691A
:10296C0003E0002AFAD08368DB6818470020704720
:10297C000FB407B504A951F8040B0191FDF7E0FD64
:10298C0003B05DF804EB04B07047044608B5084684
:10299C0011461A46A047FFF7D9FDFEF7E7FB2DE9D4
:1029AC00F84F9A46D3786F2B80460F461546A3F105
:1029BC00410B29D024D8582B0CBF10260A26DDF841
:1029CC0028903246002340463946FDF7E9FB092A98
:1029DC00D4B21ED83034B045E4B277F1000709F810
:1029EC00014D01D3D14511D82B789B0605D5082E66
:1029FC0015D1AB7843F00803AB704846BDE8F88FAF
:102A0C0003F0F703702BD7E70826D8E780460F466C
:102A1C00D7E7BBF1190F94BF37345734DBE7102ECF
:102A2C00EBD1AB7843F01003E6E72DE9F041074614
:102A3C00884615461E461446B44205D30EB1601B9B
:102A4C0008E02378002BFAD014F8010B4146B84764
:102A5C000028F1DABDE8F08170470020704700F0E3
:102A6C000BBB0146006800F007BB00210120FFF7FB
:102A7C00F6BF08B5FEF77EF9BDE80840FEF752BA7E
:102A8C00034600201A5C02B970470130FAE703468E
:102A9C0000201A5C0AB1884200D170470130F8E777
:102AAC0010B5431E0A44914200D110BD11F8014BE0
:102ABC0003F8014FF7E7C9B202440346934200D131
:102ACC00704703F8011BF9E74FF0FF307047002205
:102ADC0008B511460620FEF735F9002211460720ED
:102AEC00FEF730F9002211460820FEF72BF90022E0
:102AFC0011460920FEF726F9002211460A20FEF79E
:102B0C0021F9002211461720FEF71CF9002211466C
:102B1C002820FEF717F9002211460120FEF712F9C2
:102B2C00002211462A20FEF70DF900221146022040
:102B3C00FEF708F9002211460320FEF703F90020E6
:102B4C0008BD026917211620FEF7F4BB0269162195
:102B5C001520FEF7EFBB026913211220FEF7EABB2A
:102B6C00026911211020FEF7E5BB026910210A2031
:102B7C00FEF7E0BB02690A210520FEF7DBBB026908
:102B8C0005210420FEF7D6BB026904210320FEF7C1
:102B9C00D1BB026903210220FEF7CCBB02690221E2
:102BAC000120FEF7C7BB026901210020FEF7C2BB62
:102BBC000B68496803F1804303F50E3300201A6853
:102BCC000A431A6070470B68A3F13002782A9FBF42
:102BDC0003F1804303F50E3349681A689DBF8A439D
:102BEC0000201A606FF0850070476FF08500704709
:102BFC0043685B681B690B600020704743685B6827
:102C0C00586942400A4042405A610020704743686C
:102C1C005B6800209961704743685B68090499619F
:102C2C000020704743685A6853694B405361002039
:102C3C0070470369986810B548B1884213D1DC68B5
:102C4C0008689860A14200D1D860002008607AB969
:102C5C00002010BD814206D108682060D8688142EE
:102C6C00F3D1DC60F1E7044600680028F2D13AB1F8
:102C7C009A680A60DA689960002AE9D1D960E7E7B6
:102C8C006FF01500E5E708B50369586040680C3033
:102C9C00FEF7C0FC00EAE07008BDF0B54468012006
:102CAC00676888401E46C2F3801327EA00078B40F2
:102CBC003B43636090FAA0F7B7FA87F7D4F808C0E3
:102CCC004FF0030E7F000EFA07F72CEA070C90FA70
:102CDC00A0F7B7FA87F7C2F3C1137F00BB4043EAF2
:102CEC000C03A36090FAA0F3B3FA83F3E7685B00DC
:102CFC000EFA03F327EA030790FAA0F3B3FA83F36F
:102D0C0002F030055B00C2F341229A403A43202D79
:102D1C00E26016D107292BDC90FAA0F3226A2BB3C0
:102D2C00B3FA83F39B000F2101FA03F322EA0302A7
:102D3C0090FAA0F3B3FA83F39B0006FA03F3134360
:102D4C00236290FAA0F3B3FA83F3226890FAA0F00E
:102D5C005B000321B0FA80F02D0901FA03F3400067
:102D6C0022EA030385401D432560F0BD2B46D9E7BD
:102D7C00030A616A93FAA3F282B1B2FA82F2920068
:102D8C000F2793FAA3F3B3FA83F307FA02F29B002B
:102D9C0021EA02029E4016436662D2E72A46EEE71B
:102DAC0038B5044690030D46134617D591070ED53A
:102DBC005A072ED55022D8060BD542F400721903AF
:102DCC001AD5616801234968AB408B610DE0102274
:102DDC00F1E79906F3D542F48062F0E7DA0313D5F4
:102DEC00D80613D4C3F340139A0260680023294613
:102DFC00FFF753FF002038BD5B03F6D50121A94036
:102E0C002046FFF709FFF0E73022EEE74FF400729F
:102E1C00EBE76FF08500EEE70B46896870B521B1E2
:102E2C0001255E680C68854001B970BD8A682A402E
:102E3C0002D04B68304698471CB1236821461C468B
:102E4C00F2E72346FAE72DE9F041D0F804801F465B
:102E5C00044640460E461546FFF71FFF112F07D1BB
:102E6C0001212B0501FA06F105D5D8F8043099613A
:102E7C000020BDE8F0812046FFF7CEFEF8E782B0D7
:102E8C0003680193019B43680193019B02B0704757
:102E9C0008B54368186803681A0701D5FFF7EFFFF8
:102EAC0003689B0643BF43680B7000204FF0FF3054
:102EBC0008BD10B54068026813681B06FCD54FF0BE
:102ECC001002EFF3118382F31288BFF36F8F026845
:102EDC001468240604D483F31188BFF36F8FEAE7D8
:102EEC00516083F31188BFF36F8F10BD08B5436831
:102EFC00186802680368D9070368C2F3C00248BFA8
:102F0C0042F002029B07036848BF42F00402D90555
:102F1C0042BF6FF4807342F008020360D30701D5FF
:102F2C00FFF7ADFF910701D5FFF7A9FF530701D5B7
:102F3C00FFF7A5FFFFF7A3FF104608BDF7B5036920
:102F4C0046685C6877680D46204600F07FF810B341
:102F5C00A368DB68FBB101AA3946204698470028D4
:102F6C0019DB34680198E368192123F40043E3600A
:102F7C00AA00AB0FA0FB0101FDF712F96422B0FB14
:102F8C00F2F102FB11031B013233B3FBF2F303EB3F
:102F9C0001139BB2A36003B0F0BD03691B680B6007
:102FAC0043681A68D36803F4C063B3F5806F29D003
:102FBC00A3F5C06CDCF1000343EB0C030B7113693C
:102FCC0003F44053B3F5805F1ED0B3F5405F1DD0C2
:102FDC00002B0CBF012303234B71D068D368C004B2
:102FEC0003F4C06314D5002B14BF032304238B718B
:102FFC00536903F44073A3F5407253425341CB71B0
:10300C00002070470223D9E70023E5E70223E3E71A
:10301C00002B14BF02230323E9E730B503681360C8
:10302C00037903F10053013BDB00056814681D4470
:10303C00AC4202D96FF0010030BD65798D4202D0EF
:10304C0008341460F1E70020F6E7704738B1C36824
:10305C001888C0F30800A0F5807358425841704797
:10306C004FF01002EFF3118382F31288BFF36F8FCE
:10307C00FEE708B5FFF7F4FFF8B505460E464FF02E
:10308C001003EFF3118783F31288BFF36F8FFFF7F1
:10309C005DFA314604462846FFF7EBFF87F31188AB
:1030AC00BFF36F8F2046BDE8F840FEF75FB8FFF71F
:1030BC0002BDFFF7F5BC08B54FF01002EFF311831A
:1030CC0082F31288BFF36F8FFDF720FEF4E7D0E98F
:1030DC00003213605A600023C0E90033704708B512
:1030EC00FFF7F5FF437B23F0020343730023836058
:1030FC0008BD10B501464FF01003EFF3118483F3B4
:10310C001288BFF36F8F10F80B3C13F0280F0DD102
:10311C0051F8103C18380BB1FFF7E1FF11F80B3CDC
:10312C0023F0140301F80B3CFFF724F884F3118807
:10313C00BFF36F8F10BD10B54FF01003EFF3118478
:10314C0083F31288BFF36F8FFFF714F884F31188A1
:10315C00BFF36F8F10BD034620B9EFF305820AB998
:10316C00FDF730BE83F31188BFF36F8F70474FF0BC
:10317C001003EFF3118083F31288BFF36F8FFFF707
:10318C00EABF10B54FF01002EFF3118482F31288EE
:10319C00BFF36F8F03683BB1FFF796FA002084F3FF
:1031AC001188BFF36F8F10BD6FF01500F7E770B586
:1031BC0004460D464FF01003EFF3118683F312888B
:1031CC00BFF36F8FFFF758FA012807DDA04205DB2C
:1031DC00A0422946A8BF2046FEF71AFC86F31188A8
:0E31EC00BFF36F8F70BD08B5FFF762FB08BD23
:0231FA00FFFFD5
:0831FC00E4CFFF7F0100000099
:10320400CD0C000800000000672A00080000000040
:103214008514000894320008DB2A0008AC32000848
:10322400932C0008C4320008932C0008DC320008F8
:10323400932C0008F4320008932C00080C33000887
:10324400932C000824330008932C00083C33000816
:10325400932C000854330008932C00086C330008A6
:10326400932C000884330008932C00089C33000836
:10327400932C0008B433000845170008CC33000829
:10328400C915000800000000A5190008000000008E
:10329400273A000800000000080000203C0000203D
:1032A4000000000022370008F23900080000000086
:1032B4000000000038000020840100201C370008B2
:1032C400343A0008943700087038000840000020A1
:1032D40040020020143700083A3A0008A8370008D2
:1032E4007038000844000020500200200C37000809
:1032F400403A0008BC370008703800084800002035
:103304006002002004370008463A0008D03700085D
:10331400703800084C00002070020020FC360008C1
:103324004C3A0008E43700087038000850000020C8
:1033340080020020F4360008523A0008F8370008EA
:10334400703800085400002090020020EC36000879
:10335400583A00080C38000870380008580000205B
:10336400A0020020E43600085E3A00082038000875
:10337400703800085C000020B0020020DC36000831
:10338400643A0008343800087038000860000020EF
:10339400C0020020D43600086A3A00084838000801
:1033A4007038000864000020D0020020CC360008E9
:1033B400703A00085C380008703800086800002083
:1033C400E0020020C4360008763A00089438000869
:1033D400D83800086C00002024000020BC36000807
:1033E40000000000772A0008AC3200086D2B0008AA
:1033F400AC320008592B0008AC3200084F2B0008EF
:1034040000000000772A000800000000772A000866
:10341400AC320008B32B0008AC320008A92B00081A
:10342400AC3200089F2B0008AC320008952B000832
:10343400AC3200088B2B000800000000772A00083B
:1034440000000000772A000800000000772A000826
:1034540000000000772A000800000000772A000816
:1034640000000000772A000800000000772A000806
:1034740000000000772A000800000000772A0008F6
:1034840000000000772A000800000000772A0008E6
:1034940000000000772A0008AC320008812B0008E5
:1034A40000000000772A000800000000772A0008C6
:1034B40000000000772A000800000000772A0008B6
:1034C40000000000772A000800000000772A0008A6
:1034D40000000000772A000800000000772A000896
:1034E40000000000772A000800000000772A000886
:1034F40000000000772A000800000000772A000876
:1035040000000000772A000800000000772A000865
:1035140000000000772A000800000000772A000855
:10352400AC320008772B000800000000772A00085E
:10353400AC320008632B000800000000772A000862
:1035440000000000772A000800000000772A000825
:1035540000000000772A000800000000772A000815
:1035640000000000772A000800000000772A000805
:1035740000000000772A000800000000772A0008F5
:1035840000000000772A000800000000772A0008E5
:1035940000000000772A000800000000772A0008D5
:1035A40000000000772A000800000000772A0008C5
:1035B40000000000772A000800000000772A0008B5
:1035C40000000000772A000800000000772A0008A5
:1035D40000000000772A000800000000772A000895
:1035E40000000000772A000800000000772A000885
:1035F40000000000772A000800000000772A000875
:1036040000000000772A000800000000772A000864
:1036140000000000772A000800000000772A000854
:1036240000000000772A000800000000772A000844
:1036340000000000772A000800000000772A000834
:1036440000000000772A000800000000772A000824
:1036540000000000772A000800000000772A000814
:1036640000000000772A000800000000772A000804
:1036740000000000772A000800000000772A0008F4
:1036840000000000772A000800000000772A0008E4
:1036940000000000772A000800000000772A0008D4
:1036A40000000000772A000800000000772A0008C4
:0836B40000000000772A000865
:1036BC00010000800080FF7F010000800080FF7F00
:1036CC00010000800080FF7F010000800080FF7FF0
:1036DC00010000800080FF7F010000800080FF7FE0
:1036EC00010000800080FF7F010000800080FF7FD0
:1036FC00010000800080FF7F010000800080FF7FC0
:10370C00010000800080FF7F010000800080FF7FAF
:10371C0000800080FF7F00800080080005000C0006
:10372C000900060003000D000A000E00070004004B
:04373C000B00FF7F00
:103740004400000000400000543300080100000065
:103750005433000800000000243300080100010079
:1037600024330008000001000000002000000000D9
:1037700000000B06020000007C3700080000000873
:10378000E33900082800020700000020EB39000898
:1037900022000B11FFFF0000002802400A00000079
:1037A0003000000000040000FFFF00000024024081
:1037B000090000003000000000020000FFFF0000D0
:1037C000002002400800000030000000000100005E
:1037D000FFFF0000001C0240070000003000000056
:1037E00080000000FFFF00000018024006000000FB
:1037F0003000000040000000FFFF00000014024005
:10380000050000003000000020000000FFFF000065
:103810000010024004000000300000001000000012
:10382000FFFF0000000C0240030000003000000019
:1038300008000000FFFF0000000802400200000036
:103840003000000004000000FFFF00000004024000
:10385000010000003000000002000000FFFF000037
:1038600000000240000000003000000001000000E5
:10387000AD2D0008FD2B0008092C00081B2C0008AA
:10388000252C0008312C0008491600083F2C0008A0
:103890000000000000100140B038000801000000E6
:1038A000000000000000000000000000B838000820
:1038B0004400000010000000C038000801000000B3
:1038C000C8380008020000002701000000020000C4
:1038D00047010000000000009D2E0008BF2E0008D8
:1038E000F92E000829180008A72F0008B433000893
:1038F0009C330008843300086C33000854330008FC
:103900003C330008243300080C330008F43200086C
:10391000DC320008C4320008043200088C3200088F
:10392000943200089432000894320008F5FFFFFF3B
:103930000010000000304750494F20666F7220533E
:10394000573020636F6E666967757265642E20520A
:10395000657475726E65642025640A004750494F8E
:1039600020666F722053573120636F6E66696775EA
:103970007265642E2052657475726E6564202564CC
:103980000A004750494F20666F72204C4544302052
:10399000636F6E666967757265642E205265747513
:1039A000726E65642025640A004750494F20666F97
:1039B00072204C45443120636F6E6669677572658D
:1039C000642E2052657475726E65642025640A0049
:1039D00048656C6C6F20416761696E2100286E69D3
:1039E0006C2900464C4153485F30005352414D5FB3
:1039F0003000696E746572727570742D636F6E74C9
:103A0000726F6C6C6572403430303133633030002B
:103A1000060708090A17171717172828282828281B
:103A200001FF2AFFFF0203726363403430303233F8
:103A3000383030004750494F4B004750494F4A00FB
:103A40004750494F49004750494F48004750494F58
:103A500047004750494F46004750494F450047509F
:103A6000494F44004750494F43004750494F420097
:103A70004750494F4100554152545F31000000000A
:103A8000000000000001020304060708096D6169D7
:103A90006E007A65706879722D76332E312E300083
:103AA0002A2A2A20426F6F74696E67205A657068EF
:103AB0007972204F53206275696C6420257320252C
:083AC00073202A2A2A0A0000E3
:103AC80079290008D52A0008BD2B0008D32B000847
:103AD800000000004D140008000000000000000075
:103AE800F72B000800C20100000000000024F400C9
:083AF800300000203000002026
:103B000000000000000000000000000000000000B5
:103B100000000000000000000000000000000000A5
:103B20000000000000000000000000000000000095
:083B300000000000000000008D
:040000050800114D91
:00000001FF
