:020000040800F2
:10000000802A0120B93E0008CDF601088D3E000887
:100010008D3E00088D3E00088D3E00080000000067
:10002000000000000000000000000000213800086F
:100030008D3E000800000000B5370008215600087A
:10004000DD380008DD380008DD380008DD3800083C
:10005000DD380008DD380008DD380008DD3800082C
:10006000DD380008DD380008DD380008DD3800081C
:10007000DD380008DD380008DD380008DD3800080C
:10008000DD380008DD380008DD380008DD380008FC
:10009000DD380008DD380008DD380008DD380008EC
:1000A000DD380008DD380008DD380008DD380008DC
:1000B000DD380008DD380008DD380008DD380008CC
:1000C000DD380008DD380008DD380008DD380008BC
:1000D000DD380008DD380008DD380008DD380008AC
:1000E000DD380008DD380008DD380008DD3800089C
:1000F000DD380008DD380008DD380008DD3800088C
:10010000DD380008DD380008DD380008DD3800087B
:10011000DD380008DD380008DD380008DD3800086B
:10012000DD380008DD380008DD380008DD3800085B
:10013000DD380008DD380008DD380008DD3800084B
:10014000DD380008DD380008DD380008DD3800083B
:10015000DD380008DD380008DD380008DD3800082B
:10016000DD380008DD380008DD380008DD3800081B
:10017000DD380008DD380008DD380008DD3800080B
:10018000DD380008DD380008DD380008DD380008FB
:10019000DD380008DD380008DD380008DD380008EB
:0C01A000DD380008DD380008DD380008FC
:0401AC00FFFFFFFF53
:1001B00001F0FF01102A2BDB10F0070F08D010F818
:1001C000013B013A8B422DD010F0070F42B3F6D11C
:1001D000F0B441EA012141EA014122F007047FF035
:1001E00000070023F0E80256083C85EA010586EA8C
:1001F000010685FA47F5A3FA87F586FA47F6A5FAC8
:1002000087F68EB9EED1F0BC01F0FF0102F00702D3
:1002100032B110F8013B013A83EA010313B1F8D17E
:100220000020704701387047002D06BF354603385F
:10023000073815F0010F07D1013015F4807F02BF98
:10024000013015F4C03F0130F0BC0138704700BFE9
:1002500081F0004102E000BF83F0004330B54FEA77
:1002600041044FEA430594EA050F08BF90EA020FE4
:100270001FBF54EA000C55EA020C7FEA645C7FEA77
:10028000655C00F0E2804FEA5454D4EB5555B8BF9A
:100290006D420CDD2C4480EA020281EA030382EA0B
:1002A000000083EA010180EA020281EA0303362D9D
:1002B00088BF30BD11F0004F4FEA01314FF4801C70
:1002C0004CEA113102D0404261EB410113F0004F82
:1002D0004FEA03334CEA133302D0524263EB430339
:1002E00094EA050F00F0A780A4F10104D5F1200ED7
:1002F0000DDB02FA0EFC22FA05F2801841F1000132
:1003000003FA0EF2801843FA05F359410EE0A5F105
:1003100020050EF1200E012A03FA0EFC28BF4CF036
:10032000020C43FA05F3C01851EBE37101F00045EC
:1003300007D54FF0000EDCF1000C7EEB00006EEBF9
:100340000101B1F5801F1BD3B1F5001F0CD3490883
:100350005FEA30004FEA3C0C04F101044FEA4452DA
:1003600012F5800F80F09A80BCF1004F08BF5FEA61
:10037000500C50F1000041EB045141EA050130BD41
:100380005FEA4C0C404141EB0101013C28BFB1F553
:10039000801FE9D291F0000F04BF01460020B1FA9E
:1003A00081F308BF2033A3F10B03B3F120020CDA71
:1003B0000C3208DD02F1140CC2F10C0201FA0CF04F
:1003C00021FA02F10CE002F11402D8BFC2F1200CB4
:1003D00001FA02F120FA0CFCDCBF41EA0C0190406A
:1003E000E41AA2BF01EB0451294330BD6FEA0404B3
:1003F0001F3C1CDA0C340EDC04F11404C4F120029E
:1004000020FA04F001FA02F340EA030021FA04F3AF
:1004100045EA030130BDC4F10C04C4F1200220FA06
:1004200002F001FA04F340EA0300294630BD21FA44
:1004300004F0294630BD94F0000F83F4801306BF0A
:1004400081F480110134013D4EE77FEA645C18BFFE
:100450007FEA655C29D094EA050F08BF90EA020F95
:1004600005D054EA000C04BF1946104630BD91EA8D
:10047000030F1EBF0021002030BD5FEA545C05D190
:100480004000494128BF41F0004130BD14F58004CF
:100490003CBF01F5801130BD01F0004545F0FE4143
:1004A00041F470014FF0000030BD7FEA645C1ABF78
:1004B000194610467FEA655C1CBF0B46024650EAAF
:1004C000013406BF52EA033591EA030F41F40021DB
:1004D00030BD00BF90F0000F04BF0021704730B561
:1004E0004FF4806404F132044FF000054FF0000136
:1004F00050E700BF90F0000F04BF0021704730B5F7
:100500004FF4806404F1320410F0004548BF4042CB
:100510004FF000013EE700BF42004FEAE2014FEA20
:1005200031014FEA02701FBF12F07F4393F07F4FFB
:1005300081F06051704732F07F4208BF704793F0FE
:100540007F4F04BF41F40021704730B54FF4607411
:1005500001F0004521F000411CE700BF50EA010214
:1005600008BF704730B54FF000050AE050EA0102BD
:1005700008BF704730B511F0004502D5404261EB2D
:1005800041014FF4806404F132045FEA915C3FF46E
:10059000D8AE4FF003025FEADC0C18BF03325FEA0B
:1005A000DC0C18BF033202EBDC02C2F1200300FABC
:1005B00003FC20FA02F001FA03FE40EA0E0021FAE1
:1005C00002F11444BDE600BF70B54FF0FF0C4CF4CF
:1005D000E06C1CEA11541DBF1CEA135594EA0C0F81
:1005E00095EA0C0F00F0DEF82C4481EA030621EABC
:1005F0004C5123EA4C5350EA013518BF52EA0335F7
:1006000041F4801143F4801338D0A0FB02CE4FF0A8
:100610000005E1FB02E506F00042E0FB03E54FF0D8
:100620000006E1FB03569CF0000F18BF4EF0010ED0
:10063000A4F1FF04B6F5007F64F5407404D25FEACC
:100640004E0E6D4146EB060642EAC62141EA55517F
:100650004FEAC52040EA5E504FEACE2EB4F1FD0CC1
:1006600088BFBCF5E06F1ED8BEF1004F08BF5FEA3F
:10067000500E50F1000041EB045170BD06F00046F1
:1006800046EA010140EA020081EA0301B4EB5C049E
:10069000C2BFD4EB0C0541EA045170BD41F4801196
:1006A0004FF0000E013C00F3AB8014F1360FDEBFBB
:1006B000002001F0004170BDC4F10004203C35DA97
:1006C0000C341BDC04F11404C4F1200500FA05F31A
:1006D00020FA04F001FA05F240EA020001F00042BB
:1006E00021F0004110EBD37021FA04F642EB060131
:1006F0005EEA430E08BF20EAD37070BDC4F10C045B
:10070000C4F1200500FA04F320FA05F001FA04F21E
:1007100040EA020001F0004110EBD37041F100010A
:100720005EEA430E08BF20EAD37070BDC4F1200515
:1007300000FA05F24EEA020E20FA04F301FA05F27D
:1007400043EA020321FA04F001F0004121FA04F225
:1007500020EA020000EBD3705EEA430E08BF20EAF5
:10076000D37070BD94F0000F0FD101F0004640002F
:1007700041EB010111F4801F08BF013CF7D041EAB1
:10078000060195F0000F18BF704703F000465200B5
:1007900043EB030313F4801F08BF013DF7D043EA86
:1007A0000603704794EA0C0F0CEA135518BF95EA3C
:1007B0000C0F0CD050EA410618BF52EA4306D1D1C3
:1007C00081EA030101F000414FF0000070BD50EAE2
:1007D000410606BF1046194652EA430619D094EA6C
:1007E0000C0F02D150EA013613D195EA0C0F05D156
:1007F00052EA03361CBF104619460AD181EA0301AA
:1008000001F0004141F0FE4141F470014FF0000061
:1008100070BD41F0FE4141F4780170BD70B54FF0FC
:10082000FF0C4CF4E06C1CEA11541DBF1CEA13557C
:1008300094EA0C0F95EA0C0F00F0A7F8A4EB05045E
:1008400081EA030E52EA03354FEA013100F0888055
:100850004FEA03334FF0805545EA131343EA12631E
:100860004FEA022245EA111545EA10654FEA0026D3
:100870000EF000419D4208BF964244F1FD0404F58C
:10088000407402D25B084FEA3202B61A65EB0305E8
:100890005B084FEA32024FF480104FF4002CB6EBA5
:1008A000020E75EB030E22BFB61A754640EA0C0025
:1008B0005B084FEA3202B6EB020E75EB030E22BF65
:1008C000B61A754640EA5C005B084FEA3202B6EBA6
:1008D000020E75EB030E22BFB61A754640EA9C0065
:1008E0005B084FEA3202B6EB020E75EB030E22BF35
:1008F000B61A754640EADC0055EA060E18D04FEAF3
:10090000051545EA16754FEA06164FEAC30343EA92
:1009100052734FEAC2025FEA1C1CC0D111F4801F5F
:100920000BD141EA00014FF000004FF0004CB6E758
:1009300011F4801F04BF01430020B4F1FD0C88BFF7
:10094000BCF5E06F3FF6AFAEB5EB030C04BFB6EB02
:10095000020C5FEA500C50F1000041EB045170BDF5
:100960000EF0004E4EEA113114EB5C04C2BFD4EB22
:100970000C0541EA045170BD41F480114FF0000EA6
:10098000013C90E645EA060E8DE60CEA135594EA22
:100990000C0F08BF95EA0C0F3FF43BAF94EA0C0F25
:1009A0000AD150EA01347FF434AF95EA0C0F7FF49A
:1009B00025AF104619462CE795EA0C0F06D152EAEE
:1009C00003353FF4FDAE1046194622E750EA4106D2
:1009D00018BF52EA43067FF4C5AE50EA41047FF4E3
:1009E0000DAF52EA43057FF4EBAE12E74A0011D295
:1009F00012F5001211D20DD56FF47873B3EB625279
:100A00000ED44FEAC12343F0004343EA505323FA84
:100A100002F070474FF00000704750EA013002D1F9
:100A20004FF0FF3070474FF0000070474FEA41022F
:100A3000B2F1E04324BFB3F5001CDCF1FE5C0DD93C
:100A400001F0004C4FEAC0024CEA5070B2F1004F86
:100A500040EB830008BF20F00100704711F0804F89
:100A600021D113F13872BCBF01F00040704741F44E
:100A700080114FEA5252C2F11802C2F1200C10FA52
:100A80000CF320FA02F018BF40F001004FEAC12336
:100A90004FEAD32303FA0CFC40EA0C0023FA02F3DA
:100AA0004FEA4303CCE77FEA625307D150EA0133B0
:100AB0001EBF4FF0FE4040F44000704701F0004080
:100AC00040F0FE4040F40000704700BF80F000405E
:100AD00002E000BF81F0004142001FBF5FEA410316
:100AE00092EA030F7FEA226C7FEA236C6AD04FEA16
:100AF0001262D2EB1363C1BFD2184140484041405B
:100B0000B8BF5B42192B88BF704710F0004F40F40C
:100B1000000020F07F4018BF404211F0004F41F428
:100B2000000121F07F4118BF494292EA030F3FD0F4
:100B3000A2F1010241FA03FC10EB0C00C3F1200307
:100B400001FA03F100F0004302D5494260EB400096
:100B5000B0F5000F13D3B0F1807F06D340084FEA01
:100B6000310102F10102FE2A51D2B1F1004F40EBF6
:100B7000C25008BF20F0010040EA0300704749005E
:100B800040EB0000013A28BFB0F5000FEDD2B0FAFB
:100B900080FCACF1080CB2EB0C0200FA0CF0AABF1E
:100BA00000EBC25052421843BCBFD04018437047BC
:100BB00092F0000F81F4000106BF80F400000132C2
:100BC000013BB5E74FEA41037FEA226C18BF7FEA99
:100BD000236C21D092EA030F04D092F0000F08BFDB
:100BE0000846704790EA010F1CBF0020704712F0C2
:100BF0007F4F04D1400028BF40F00040704712F101
:100C000000723CBF00F50000704700F0004343F065
:100C1000FE4040F4000070477FEA226216BF08469B
:100C20007FEA23630146420206BF5FEA412390EA5E
:100C3000010F40F4800070474FF0000304E000BF54
:100C400010F0004348BF40425FEA000C08BF704705
:100C500043F0964301464FF000001CE050EA0102C9
:100C600008BF70474FF000030AE000BF50EA0102DE
:100C700008BF704711F0004302D5404261EB4101CB
:100C80005FEA010C02BF84460146002043F0B643F0
:100C900008BFA3F18053A3F50003BCFA8CF2083A15
:100CA000A3EBC25310DB01FA02FC634400FA02FC1E
:100CB000C2F12002BCF1004F20FA02F243EB020025
:100CC00008BF20F00100704702F1200201FA02FC87
:100CD000C2F1200250EA4C0021FA02F243EB02007A
:100CE00008BF20EADC70704753B94AB9002908BF31
:100CF00000281CBF4FF0FF314FF0FF3000F00CB860
:100D0000ADF1080C6DE904CE00F0B8F8DDF804E0B0
:100D1000DDE9022304B07047704700BF4FF0FF3C8D
:100D200006E000BF4FF0010C02E000BF4FF0010CE5
:100D30004DF804CD4FEA410C7FEA6C5C4FEA430C5E
:100D400018BF7FEA6C5C1BD001B050EA410C0CBFAD
:100D500052EA430C91EA030F02BF90EA020F00200F
:100D6000704710F1000F91EA030F58BF994208BF76
:100D700090422CBFD8176FEAE37040F00100704733
:100D80004FEA410C7FEA6C5C02D150EA013C07D18A
:100D90004FEA430C7FEA6C5CD6D152EA033CD3D0D5
:100DA0005DF8040B704700BF8446104662468C46CF
:100DB0001946634600E000BF01B5FFF7B7FF002802
:100DC00048BF10F1000F01BD4DF808EDFFF7F4FF2B
:100DD0000CBF012000205DF808FB00BF4DF808EDB6
:100DE000FFF7EAFF34BF012000205DF808FB00BFD9
:100DF0004DF808EDFFF7E0FF94BF012000205DF8FB
:100E000008FB00BF4DF808EDFFF7CEFF94BF0120AF
:100E100000205DF808FB00BF4DF808EDFFF7C4FFA8
:100E200034BF012000205DF808FB00BF4FEA4102FB
:100E300012F5001215D211D56FF47873B3EB62522C
:100E400012D94FEAC12343F0004343EA505311F053
:100E5000004F23FA02F018BF404270474FF00000E5
:100E6000704750EA013005D111F0004008BF6FF023
:100E7000004070474FF00000704700BF2DE9F04779
:100E800086468C460846089E154674461946002B31
:100E900040F0C2808542B2FA82F245D94AB1C2F12D
:100EA000200300FA02FC2EFA03F3954043EA0C0CEF
:100EB00094404FEA154EA8B2BCFBFEF8230C0EFB83
:100EC00018CC08FB00F943EA0C43994528D9EB18E4
:100ED00008F1FF3704D2994502D9A8F102072B4443
:100EE000A3EB0903A4B2B3FBFEFC0EFB1C330CFB0B
:100EF00000F044EA0344A04214D92C190CF1FF334A
:100F000004D2A04202D9ACF102032C44241A43EAD1
:100F100007401EB1D440002334607360BDE8F08701
:100F20004746DDE76346F1E792BB431B01214FEAE9
:100F3000154EAFB2B3FBFEFC200C0EFB1C330CFBBA
:100F400007F840EA0343984562D9EB180CF1FF30EB
:100F500004D2984502D9ACF102002B44A3EB08035C
:100F6000A4B2B3FBFEFC0EFB1C330CFB07F744EAF8
:100F70000344A7424ED92C190CF1FF3304D2A742E7
:100F800002D9ACF102032C44E41B43EA0040C0E761
:100F9000C2F1200320FA03F1954090402EFA03F3AA
:100FA00003434FEA154EAFB2B1FBFEFC0EFB1C1023
:100FB000190C0CFB07F841EA0041884504FA02F4D9
:100FC00022D969180CF1FF3004D2884502D9ACF15E
:100FD00002002944A1EB08019BB2B1FBFEFC0EFB11
:100FE0001C110CFB07F743EA01439F420ED9EB1893
:100FF0000CF1FF3104D29F4202D9ACF102012B4423
:10100000DB1B41EA004192E76046E3E76146F7E710
:101010006046A3E76346B7E7834206D916B90021C5
:1010200008467BE7C6E900E0F9E7B3FA83F78FB932
:10103000834201D3724508D8BEEB020460EB030380
:1010400001209C461EB9002168E73846FAE7C6E948
:10105000004CF8E7C7F1200CBB4022FA0CF41C430B
:101060002EFA0CF120FA0CF3B84001434FEA144970
:101070000EFA07F5B3FBF9F81FFA84FE09FB1830E6
:101080000B0C08FB0EFA43EA00439A4502FA07F2FA
:1010900040D9E31808F1FF3004D29A4502D9A8F1EB
:1010A00002002344A3EB0A0389B2B3FBF9F809FB5E
:1010B000183308FB0EFE41EA03418E452CD9611816
:1010C00008F1FF3304D28E4502D9A8F1020321446E
:1010D00043EA0040A0FB0298A1EB0E014145CE4639
:1010E000434602D306D14D4504D2B9EB020E68EB5C
:1010F00004030138002EA6D0B5EB0E0261EB03010C
:1011000001FA0CFC22FA07F34CEA0303F940C6E9A2
:10111000003198E74046C5E74346D9E710F8012B70
:1011200011F8013B012A28BF9A42F7D0D01A704724
:10113000034613F8012B002AFBD1181A0138704717
:101140002DE9F04F084B8FB018682AF0A2FE034635
:1011500080B9064A06490090CDE9010201221DF03E
:1011600003FF0FB0BDE8F08F000000201CEC020868
:1011700050CB02084FF0FF314FF0FF3000F07AFE05
:10118000CF48D04CDFF840A3DFF840B3D04D24F077
:10119000CBFFD049CA4824F0F1FE0121C84824F011
:1011A000F7FE1DF0DAFE08F0FBFEC54920600022C4
:1011B00020F0DBF9142220683C2122F050F9C649C6
:1011C0002068C64C09F056FB1DF0C7FE06F070F80B
:1011D0000021206021F013F83C222068114622F003
:1011E00079F9BF4B20685A8819881E3A1E3912B205
:1011F00009B222F034F9BB4B20681988002222F092
:10120000A4FD2068002247F6FF7122F0BFFDB64B17
:101210000593B64B049300241DF09FFE04EB840657
:1012200008F0BEFEF600059B2D3636B21860324639
:10123000052122F014F9AE4A234604210DA81DF021
:1012400003FF059B0DA953F8040B059309F012FB4E
:101250001DF083FE08F0A4FE049B32461860232193
:1012600022F0FDF8049BA34953F8040B04930022D9
:1012700009F060FB9A4B1888FFF73CF9CDE90601AD
:10128000E0B2FFF7D9FC0146FFF726FCFFF744F96F
:1012900085A3D3E90023FFF797F90022964BFFF7C8
:1012A000BDFAFFF7C3FBFFF737F9804689461CF00C
:1012B0006BFF8B4B064658880F46FFF71BF9CDE9AD
:1012C0000801404649461CF0A5FFCDE90A011DF082
:1012D00044FE05F0EDFF0021CAF8000022F0D3FC27
:1012E0005AF8040B002120F08AFF282211465AF8F0
:1012F000040C22F0EFF8814B002230463946FFF70C
:1013000063F9DDE90623FEF7A9FFFFF76FFB7B4BCF
:10131000A0F114060022DDE90A01FFF755F9DDE925
:101320000823FEF79BFFFFF761FBA0F1140736B21D
:101330003FB23A4631465AF8040C22F090F8704B0E
:101340005AF8040C33F81410002222F0FEFC00229C
:101350005AF8040C47F6FF7122F018FD604B18880C
:10136000FFF7C8F852A3D3E90023CDE906014046B0
:101370004946FEF773FFFFF759FBFFF7CDF88046AC
:1013800089461CF001FF564BCDE908015888FFF74C
:10139000B1F8CDE90A01404649461CF03BFF8946B9
:1013A00080461DF0DAFD05F083FF0021CBF8000038
:1013B00020F025FF14225BF8040B114622F08AF876
:1013C0004E4B002240464946FFF7FEF83AA3D3E9C8
:1013D0000023FFF7F9F8DDE90A23FEF73FFFFFF7E7
:1013E00005FB464BA0F10A080022DDE90801FFF7E2
:1013F000EBF831A3D3E90023FFF7E6F8DDE9062394
:10140000FEF72CFFFFF7F2FA0FFA88F8A0F10A01B5
:1014100042465BF8040C09B222F021F8394B5BF824
:10142000040C1988002222F090FC002247F6FF717C
:101430005BF8040C22F0AAFC1DF08FFD05F038FFCC
:10144000314A2860002120F009F955F8040B3A468A
:10145000314622F004F82822114655F8040C214F99
:1014600022F038F8012155F8040C20F031FC55F831
:10147000040C05F01DFF03220646114622F02AF84F
:10148000304613220D2121F0EAFF3046002247F6B4
:10149000FF7122F07BFC00221146304622F06AFCEC
:1014A00034E000BFAFF300807A008BFCFA210940E2
:1014B00095336F302F1BE43F9A9999999999E93F99
:1014C000A048002010490020D0480020A848002053
:1014D000BC48002004D5020835EC0208E44800208E
:1014E00040020020C2E70208FC480020E848002033
:1014F0004AEC0208A00203080000144000004E401D
:10150000A2E70208A0E70208FFFF0F0039880022C7
:10151000304622F01AFC55F8040C05F0C9FE0322EF
:101520001146064621F0D6FF13221146304621F01F
:1015300096FF3046002247F6FF7122F027FC00227A
:101540001146304622F016FC39880022304622F03F
:10155000FCFB55F8040C05F0ABFE032206461146D1
:1015600021F0B8FF13221921304621F078FF002224
:1015700047F6FF71304622F009FC00221146304642
:1015800022F0F8FB013439880022304622F0DDFBDE
:10159000052C7FF441AE054B186883685B6898475B
:1015A0000FB0BDE8F04F00F06DBC00BF00000020A0
:1015B0002DE9F04FC44B8DB021F000489845064608
:1015C0000F461446049107D8C2E9006700230022A1
:1015D000C4E90223002526E0BC4B984576D8049B3D
:1015E000BB4D002BAAA3D3E9002338DDFEF734FE60
:1015F000A84506460F461AD0A7A3D3E90023FEF755
:101600002BFE02460B468046894630463946FEF799
:1016100023FEA1A3D3E90023FEF71EFEC4E900893F
:10162000C4E90201012528460DB0BDE8F08F9CA356
:10163000D3E90023FEF710FE9BA3D3E9002306465F
:101640000F46FEF709FE02460B46804689463046A5
:101650003946FEF701FE94A3D3E90023DCE7FEF749
:10166000FDFDA84506460F4618D08BA3D3E90023FD
:10167000FEF7F4FD02460B46804689463046394661
:10168000FEF7EAFD84A3D3E90023FEF7E7FD4FF060
:10169000FF35C4E90089C4E90201C4E780A3D3E9A6
:1016A0000023FEF7DBFD80A3D3E9002306460F46A7
:1016B000FEF7D4FD02460B46804689463046394641
:1016C000FEF7CAFD78A3D3E90023DEE7814B9845F6
:1016D00000F2CF802AF03FFD75A3D3E90023064630
:1016E0000F46FEF771FF7C4B0022FEF7B7FDFFF7B8
:1016F0009DFB0546FEF7FEFE02460B46CDE90223A2
:1017000063A3D3E90023FEF75FFF02460B46304692
:101710003946FEF7A1FD60A3D3E9002382468B463C
:10172000DDE90201FEF750FF1F2D06460F460CDCD7
:101730006A4B6A1E53F82230434506D032463B4678
:1017400050465946FEF788FD0EE03B46324650466D
:101750005946FEF781FD4FEA28530593C1F30A531A
:10176000C3EB1853102B02DCC4E9000139E04CA391
:10177000D3E90023DDE90201FEF726FF06460F4606
:1017800002460B4650465946FEF766FD02460B469A
:101790008046894650465946FEF75EFD32463B4636
:1017A000FEF75AFD40A3D3E9002306460F46DDE9C4
:1017B0000201FEF709FF32463B46FEF74DFD0246A9
:1017C0000B4606460F4640464946FEF745FD059A3C
:1017D000C1F30A53D31A312B20DCC4E90001C246FD
:1017E000CB46D4E90089504642464B465946FEF75F
:1017F00033FD3B463246FEF72FFD049B002BC4E928
:101800000201BFF610AF09F10043636001F100432C
:10181000C4F80080A060E3606D4204E726A3D3E92A
:101820000023DDE90201FEF7CFFE06460F46024621
:101830000B4640464946FEF70FFD02460B468246E0
:101840008B4640464946FEF707FD32463B46FEF7CB
:1018500003FD1BA3D3E9002306460F46DDE9020181
:10186000FEF7B2FE32463B46FEF7F6FC06460F4652
:1018700064E71B4B984535D902460B46FEF7ECFC56
:10188000C4E90201C4E90001A4E600BFAFF300808F
:1018900000004054FB21F93F3163621A61B4D03D2E
:1018A0000000601A61B4D03D7370032E8A19A33B07
:1018B00083C8C96D305FE43F0000002E8A19A33B46
:1018C000C14920259A837B39FB21E93F7BD902401E
:1018D000FB21F93FFB2139410000E03FA8E5020868
:1018E000FFFFEF7F4FEA2855A5F21645A8EB0551FB
:1018F0000F46FFF79BFAFEF7FDFD02460B4630460A
:101900003946CDE90623FEF7A7FC224B0022FEF75D
:101910005BFE0F460646FFF789FAFEF7EBFD02462F
:101920000B4630463946CDE90823FEF795FC194BA6
:101930000022FEF749FECDE90A010DF130094FF012
:1019400003080026002779E9020132463B46C246D9
:1019500008F1FF38FFF738FA0028F4D10E4B019355
:10196000022300932A465346214606A81CF098FC01
:10197000049B002B0546BFF656AED4E9002101F1C9
:101980000043C4E90023D4E9022101F10043C4E982
:10199000022341E70000704128E602080000000031
:1019A0002DE9F74F21F00046B6F1795FCDE900232C
:1019B0008046894604D2FFF739FA002800F0868075
:1019C00042464B4640464946FEF7FEFD4E4B00223E
:1019D00004460D46FEF7F8FD3FA3D3E900238246F7
:1019E0008B4620462946FEF7EFFD3DA3D3E90023B1
:1019F000FEF734FC22462B46FEF7E6FD3AA3D3E978
:101A00000023FEF729FC22462B46FEF7DDFD38A316
:101A1000D3E90023FEF722FC22462B46FEF7D4FD35
:101A200035A3D3E90023FEF717FC22462B46FEF729
:101A3000CBFD33A3D3E90023FEF710FC22462B464F
:101A4000FEF7C2FD22462B46FEF7BEFDDDE9002370
:101A500004460D4640464946FEF7B6FD0B46024693
:101A600029462046FEF7F8FB284B9E4280468946D1
:101A70000ED802460B4650465946FEF7EDFB0B4684
:101A8000234902460020FEF7E7FB03B0BDE8F08FD4
:101A9000204B1F499E428CBF1F4DA6F50015002408
:101AA00022462B460020FEF7D7FB224606460F466D
:101AB0002B4650465946FEF7CFFB42464B46FEF7B3
:101AC000CBFB02460B4630463946DCE71049002086
:101AD000DBE700BFAFF30080D43888BEE9FAA8BDC9
:101AE000C4B1B4BD9EEE213EAD529C804F7E923E6D
:101AF0009015CB19A001FA3E7751C1166CC1563F23
:101B00004C5555555555A53F0000E03F3233D33F66
:101B10000000F03F0000E93F0000D23F000000005D
:101B20002DE9F04F1F4621F00043B3F1795F85B0F6
:101B300004460D46164603D2FFF778F9002851D027
:101B400022462B4620462946FEF73EFD82468B461E
:101B500002460B4620462946FEF736FD3EA3D3E952
:101B600000238046894650465946FEF72DFD3CA38A
:101B7000D3E90023FEF770FB52465B46FEF724FDD7
:101B800039A3D3E90023FEF769FB52465B46FEF713
:101B90001BFD37A3D3E90023FEF75EFB52465B46ED
:101BA000FEF712FD34A3D3E90023FEF757FB0E9B8B
:101BB000CDE90001DBB902460B4650465946FEF717
:101BC00003FD2FA3D3E90023FEF746FB42464B4615
:101BD000FEF7FAFC02460B4620462946FEF73EFB7E
:101BE00004460D462046294605B0BDE8F08F264B39
:101BF000002230463946FEF7E7FCDDE90023CDE957
:101C0000020140464946FEF7DFFC02460B46DDE98D
:101C10000201FEF721FB52465B46FEF7D5FC324639
:101C20003B46FEF719FB16A3D3E9002306460F46F1
:101C300040464946FEF7C8FC02460B463046394648
:101C4000FEF70CFB02460B4620462946FEF704FB36
:101C5000C6E700BFAFF300807CD5CF5A3AD9E53D47
:101C6000EB9C2B8AE6E55A3E7DFEB157E31DC73E4D
:101C7000D561C119A0012A3FA6F810111111813FA9
:101C8000495555555555C53F0000E03F000000003F
:101C90002DE9F041C1F30A57A7F2FF36132E024691
:101CA0000B460C460546804635DC002E17DA34A379
:101CB000D3E90023FEF7D2FA00220023FFF7ACF8A5
:101CC00050B1002C57DA24F000442C430025AC42DC
:101CD0002D4C08BF4FF0004423462A4624E02B4FEA
:101CE000374101EA070C5CEA000C1DD024A3D3E9BC
:101CF0000023FEF7B3FA00220023FFF78DF8002837
:101D0000EAD0002CBEBF4FF480133341E41824EA1C
:101D100007040025E0E7332E0ADDB6F5806F03D116
:101D2000FEF79CFA02460B4610461946BDE8F081C4
:101D3000A7F213474FF0FF3C2CFA07F70742F3D006
:101D40000FA3D3E90023FEF789FA00220023FFF74F
:101D500063F80028C0D0002C0ADA142E01D1013417
:101D600006E0C6F134060123B3401D444545F6D3D1
:101D700025EA0705B0E700252C46ADE7AFF3008064
:101D80009C7500883CE4377E0000F0BFFFFF0F0029
:101D90002DE9F0481646C1F30A5283468C460B469D
:101DA00082B921F00043034335D02D4B0022FEF7CA
:101DB0000BFC2C4B9E4283468C460DDA24A3D3E9C0
:101DC00000231CE040F2FF77BA4209D10246FEF739
:101DD00045FA83468C461EE0C1F30A520B46363A5A
:101DE000324440F2FE718A420CDD1BA3D3E900238A
:101DF0004FEADC711C4661F3DF741B482146FEF795
:101E0000E3FBE6E7002A0ADD23F0FF4323F4E003C7
:101E100043EA0255AC4658466146BDE8F08812F1E7
:101E2000350F09DA0CF0004343F0D27141F4B731B9
:101E30000E4841F01F01C1E723F0FF43363223F47F
:101E4000E00343EA02555846094B29460022D6E7EB
:101E500059F3F8C21F6EA5019C7500883CE4377EDB
:101E600000005043B03CFFFF9C75008859F3F8C256
:101E70000000903C02460B4601481BF01BBB00BF14
:101E8000E802002001481BF0A1BB00BFE8020020CF
:101E900030B5042885B004460D460DD90F4B02938A
:101EA00000231846CDE900330D4901221DF05CF8EE
:101EB0004FF0FF3005B030BD4FF0FF304FF0FF3135
:101EC000FFF7D8FF074B084953F824002A4608F0CB
:101ED00031FDFFF7D7FF0020ECE700BF4FEC020811
:101EE00050CB0208E8480020A002030830B50428BF
:101EF00085B004460D460DD9104B029300231846B9
:101F0000CDE900330E4901221DF02EF84FF0FF30CD
:101F100005B030BD4FF0FF304FF0FF31FFF7AAFFA3
:101F2000084B012153F824002DB11FF007FFFFF7E4
:101F3000A9FF0020ECE71FF0CBFEF8E74FEC02080A
:101F400050CB0208BC48002030B5042985B00546B6
:101F50000C4601D804280DD9104B029300231846D3
:101F6000CDE900330E4901221CF0FEFF4FF0FF3097
:101F700005B030BD4FF0FF304FF0FF31FFF77AFF73
:101F8000084B33F81510084B002253F8240021F0B9
:101F9000DCFEFFF777FF0020EAE700BF6AEC0208EB
:101FA00050CB0208A2E70208A848002004291FB568
:101FB0000C4601D804280DD90F4B02930023184674
:101FC000CDE900330D4901221CF0CEFF4FF0FF3068
:101FD00004B010BD4FF0FF304FF0FF31FFF74AFF64
:101FE000074B1988074B002253F8240021F0ADFE5F
:101FF000FFF748FF0020EBE76AEC020850CB02082D
:10200000A0E70208A848002038B505460C4601EBB9
:10201000810007494FF0FF3301EB80004FF0FF32A2
:102020001BF04EFB21462846BDE83840FFF78CBF29
:10203000144900202DE9F047C4B2221D294DDFF8D4
:10204000A8A0DFF8A890DFF8A8800523B2FBF3F37F
:1020500003EB8303D31A142202FB0457DEB202FB04
:10206000035501212046FFF741FF02F071F841F2CC
:102070009413B0FBF3F202FB130000F2DC500A21D0
:10208000A0FB01011BF052FE00212046FFF72EFFAE
:1020900050461AF039FF21462046FFF7B5FF484663
:1020A0001AF032FF31462046FFF7AEFF40461CF0E3
:1020B0003DF821462046FFF779FF38461BF0D6FA57
:1020C00031462046FFF772FF28461BF0CFFA094B36
:1020D00033F81410013189B2204623F81410FFF7A9
:1020E000D7FEBEE714490020AAEC0208BEEC0208A5
:1020F00060E31600BCC800202DE9F047184D88B0F9
:102100000024012228461146013429F014FF052C31
:1021100005F11405F5D1FFF713F80024114E124D07
:10212000DFF848A04FF000084FF0000927460123D0
:10213000CDE90273CDE9004729463046CDE906894D
:10214000049753464FF4006201341BF03BF9052C11
:1021500006F1B00605F50465E9D108B0BDE8F087E1
:1021600014490020C803002080E700203520000823
:102170002DE9F04F8DB09B4602F004030193C2F3AA
:10218000C20301338407169D039206460F4605934A
:1021900040F0E581041D30B1072909D86FF01B001C
:1021A0000DB0BDE8F08F01F007073C1DC7F108072F
:1021B0000BF1FF3302934FF00408002304931A46F7
:1021C0009A46C1460EB1C4F800B00598002800F345
:1021D0003181B548834503D3B4488345C0F02A8193
:1021E0000399A4EB060E89074FEA9E0000F1478190
:1021F0000F2A00F2FC80002E00F04781C0B202F1ED
:1022000030010DEB010C0CF8100C04980130049017
:102210002DE1BAF1000F07D1252816D14FF0010AA0
:102220004FF00408C14610E06C2800F296804B285D
:102230001DD8472800F2A680292863D8202804D07A
:102240002338D0F1000A4AEB000A029911F8010F75
:1022500002910028DDD1A11BB1F5806F80F0C7800D
:10226000002E40F02581A7F10800084498E7A0F16E
:102270004C0CBCF1200F00F2858001A151F82CF02C
:102280004B220008852300088523000885230008C9
:10229000852300088523000885230008852300087E
:1022A000852300088523000885230008852300086E
:1022B0008B23000885230008852300088523000858
:1022C000852300088523000885230008852300084E
:1022D00085230008AD230008852300088B23000810
:1022E0008B230008AD230008AD230008AD230008B0
:1022F0004B2200088B230008D32300088523000805
:102300004B220008A0F12A0C5FFA8CFC0EFA0CFCA0
:102310004FF6DA711CEA010F97D11CF0625F45D1CC
:102320001CF0010A91D0013C4444C8F1000C04EABD
:102330000C04002E69D0A9EB060CA4446745FFF4F9
:102340002DAF732870D0B9F1040F4DD155F8040B9F
:10235000206004344FF0040977E7A0F16E0C5FFAB7
:102360008CFCBCF10C0F0DD80EFA0CFC1CF0250FE8
:1023700032D140F282411CEA010F06D11CF4825C8A
:102380007FF44EAF4FF0000A5FE7029911F801CCDD
:10239000BCF16C0F25D111F802CCBCF16C0F4FF0E1
:1023A000000A1BD14FF00808C146BCE7073525F0ED
:1023B00007050734F5E8028924F0070436B10698CA
:1023C0002044B8423FF6EAAEC4E9008908344FF031
:1023D000000A4FF0080825E74FF0000A4FF0040804
:1023E000E2E74FF0000A9EE7B9F1080F02D06FF064
:1023F0001500D5E6073525F00705F5E80201C4E923
:10240000000108344FF008091FE773280CD0B9F118
:10241000040F01D104359CE7B9F1080FE7D1073566
:1024200025F007050835ECE7059955F804BB013997
:102430000591C7E6039989071AD5A4EB060E4FEA62
:102440009E004FF0010CBEF5007FD0D20F2ACED8EF
:10245000C6B1C0B2BCF1000F3FF4D1AE02F1300101
:102460000DEB010C60F07F000CF8100C0133013211
:10247000C6F1080104344FF0010E0691E5E64FF075
:10248000000CE0E7BCF1000F01D1019808B1013761
:10249000EDE75846CDE90623FEF74AFE0237DDE9AF
:1024A00006230744E3E700BF7CC40208F890030852
:1024B000019DC1F3870C9DF810100DB908462946FF
:1024C00086F800C07070F170B3702BB108A80025B9
:1024D000C6F1010CAA4208D108AD05EB0208C6F10D
:1024E0000109A84511D1A01B5AE610F8011B11F0F3
:1024F000800F08D004EB0C0E774501F07F01FFF44C
:102500004DAE04F8011B0135E4E71BB195F900203D
:10251000002A1FDB019AFAB92A78029356F822B0F2
:10252000019B46F822305846FEF702FE029B00F15E
:10253000010A04EB0902524497420293FFF42EAEC3
:102540002A7804F8012B59462046524629F007FE06
:10255000029B54440135C4E74FF0000AE9E76FF0ED
:102560000D001DE6014B1860704700BF04000020FD
:1025700030B585B0CDE901010446002501A9054823
:10258000039500F06BF8DDE902309842B8BF25549E
:1025900005B030BD09F00108F0B5094E01680246EA
:1025A0000A2700200B4601311C78355D6D0701D4E8
:1025B0001360F0BD07FB0043A3F13000F2E700BF5A
:1025C000C48F03082DE9F84F15469A46D378224A5E
:1025D00012F803B06F2B80460F460BF0030B29D087
:1025E00024D8582B0CBF10260A26DDF82890324636
:1025F000002340463946FEF777FB092AD4B21ED89D
:102600003034B045E4B277F1000709F8014D01D349
:10261000D14511D82B789B0605D5082E15D1AB785E
:1026200043F00803AB704846BDE8F88F03F0F703AA
:10263000702BD7E70826D8E780460F46D7E7BBF1CF
:10264000010F0CBF37345734DBE7102EEBD1AB78DA
:1026500043F01003E6E700BFC48F03082DE9F04FF5
:1026600097B08246039117461C460025387808B972
:1026700028464AE37B1C2528049306D00399D047BB
:102680000028C0F242830135F9E11822002110A888
:1026900029F0A0FD7B78252B00F0A3800023791C76
:1026A00098469E469C4618460E4611F8012B2B2A4A
:1026B00000F0C68000F2BD80202A00F0C480232AEA
:1026C00000F0C4802BB19DF8483043F040038DF8F2
:1026D0004830B8F1000F05D09DF8483043F0200392
:1026E0008DF84830BEF1000F05D09DF8483043F01A
:1026F00010038DF84830BCF1000F05D09DF848302C
:1027000043F008038DF8483028B19DF8483043F075
:1027100004038DF848309DF8483003F04401442903
:1027200003D16FF386138DF848309DF84830099631
:1027300043F080032A2A8DF8483040F08C809DF8C1
:10274000493043F001038DF84930731C1A782E2A62
:102750009DF849200CBF0121002161F341028DF851
:1027600049200CD15A1C09925A782A2A40F08380B9
:102770009DF8492042F004028DF8492002331A786E
:102780006C2A00F0A48000F28680682A00F08C8019
:102790006A2A00F0A5804C2A00F0AA801A4612F896
:1027A000013B0492782B9DF849208DF84B3000F2C4
:1027B00017816D2B00F2A980692B00F21181572B34
:1027C00000F2BE80412B03D0453B022B00F2088172
:1027D0009DF84A30042262F302038DF84A30012347
:1027E000CAE0BA1C04928DF84B309DF84930DA07E4
:1027F00040F1FD8054F8049BB9F1000F07DA9DF811
:10280000482042F004028DF84820C9F100095E0713
:1028100040F1F68054F804BBBBF1000F80F2F58064
:102820009DF849306FF341038DF849304FF0FF3B7D
:10283000EBE02D2A0DD0302A7FF444AF012333E79B
:102840004FF0010C30E74FF0010E2DE74FF001087B
:102850002AE7012028E709A8FFF79EFE099BB3425B
:102860003FF474AF9DF848201390C00F60F341020D
:102870008DF848206AE709A8FFF78EFE9DF84830DA
:102880001490C3F3400242EAD07262F341038DF820
:102890004830099B73E7742A26D07A2A7FF47EAFEA
:1028A0009DF8492006210CE05A78682A9DF84920B5
:1028B00006D1012161F3C6028DF8492002336DE78C
:1028C000022161F3C6028DF84920013366E75A7888
:1028D0006C2A9DF8492001D10421EBE70321F0E7A0
:1028E0009DF849200521ECE79DF849200721E8E7FC
:1028F000BDF8482022F4F04222F0020242F4804265
:1029000042F00202ADF84820DFE76E3BD9B2012366
:102910008B4040F282410B4238D113F0240F52D148
:10292000D8075DD59DF84A30032161F302038DF885
:102930004A3002F07803A3F140014B424B411BE0C7
:10294000A3F15801C9B2012000FA01F111F4624F5C
:102950007FF43EAF40F6010631421DD111F4043F31
:102960003ED09DF84A3060F3020302F07802402A1C
:102970008DF84A3034D000239DF84820C2F340013E
:102980000B4363F341028DF848202EE79DF84A304F
:10299000022161F30203E8E79DF84A10022002F0E9
:1029A000780260F30201402A8DF84A1002BF9DF8B8
:1029B000481041F001018DF84810632BDBD1131E44
:1029C00018BF0123D8E79DF84A30032161F30203C1
:1029D00012F0780F8DF84A3014BF01230023CBE7A3
:1029E0009DF8483043F001038DF84830C3E79DF966
:1029F0004820002AB4BFDDF84C904FF0FF3906E7BD
:102A000098077FF513AFDDF850B09DF8491000230B
:102A1000CDE913339DF84A3003F00703012BC1F3CE
:102A2000C30133D1CB1E042B04D8DFE803F01046DA
:102A300046101000236801294FEAE372CDE91032F5
:102A40000BD103F0FF0310930023119307E054F818
:102A5000043BDA17CDE9103202E0022911D0043428
:102A60009DF8483013F0030647D0049B03993A467B
:102A700050461CF059FD0028C0F247810544049FD0
:102A8000F4E51AB2109243F3C033DEE7022B24D1EF
:102A9000CB1E042B04D8DFE803F018101018180020
:102AA000012954F8043B4FF0000214D00229CDE96B
:102AB0001032D5D19BB21093D2E7073424F007042B
:102AC000F4E80223CDE91023CAE754F8043B10933D
:102AD00000231193C4E7DBB2BCE7042B08D1073411
:102AE00024F00704D4E900230834CDE91023B7E724
:102AF000032BB5D154F8043BDDE79DF84B00782853
:102B0000BDD862281CD825283FF4B8AD5828B6D1C6
:102B10000DF13E030093DDE910010AAB12AAFFF7A5
:102B200051FDBBF1000F074680F29880002FA6D020
:102B30000DF13E08A8EB0700002E4ED001304CE00E
:102B4000633815289BD801A252F820F0CB2B00083F
:102B5000312C00087F2A00087F2A00087F2A0008FD
:102B60007F2A0008312C00087F2A00087F2A0008ED
:102B70007F2A00087F2A0008BB2C0008572C000879
:102B80007D2C00087F2A00087F2A0008A52B00085A
:102B90007F2A0008572C00087F2A00087F2A000897
:102BA000572C0008BBF1000F109F0ADB594638462E
:102BB00029F0A0FB07EB0008002F3FF460AF0026D0
:102BC0000BE03846FEF7B4FAF4E7109B8DF8283096
:102BD00000260DF129080AAF01209DF84A3013F0B4
:102BE0001002059200F0848002305B06DDF84CB0E4
:102BF00048BF149B584448BFC018B9F1000F40F3B8
:102C000091809DF84820A9EB0009C2F3800350078A
:102C1000069300F1878051067AD53EB1039930467C
:102C2000D047002871DB069B01351E46302270E03C
:102C300019075CBFC3F300135E01DDE9102348BF31
:102C40002B26002BBFF664AF524263EB4303CDE962
:102C500010232D265CE700265AE700269DF8482021
:102C60000DF13E03DB1B6FF386129B458DF8482068
:102C70007FF65CAFABEB0303139357E7109880B379
:102C80000DF13E080AABCDF8008012AA0021FFF733
:102C900099FCBDF84A3003F0EF0343F4F04343F0EE
:102CA0001003BBF1000F0746ADF84A30D5DA002813
:102CB0003FF4E5AEA8EB000081E7109B07293FF643
:102CC000DEAEDFE801F00C04060C08080C0C1D70E9
:102CD000D5E61D80D3E6EA17C3E90052CFE61D60B2
:102CE000CDE6DFF8BC800646A8F10507052074E7AD
:102CF0001A0748BF013078E70793104606920399F8
:102D0000D0470028DDE9062304DA17B0BDE8F08FCC
:102D100020224B461946002903F1FF33ECDC4D44D9
:102D20006D1A99462EB103993046D0470028ECDB46
:102D300001359DF84A30DA0601D41B0705D5039901
:102D40003020D0470028E0DB0135059B33B10399E3
:102D50009DF84B00D0470028D7DB0135AB4405E098
:102D600003993020D0470028CFDB0135ABEB0503BA
:102D7000002BF5DC039943463A4650461CF0D4FB41
:102D80000028C2DB0544A944A9EB0503002B7FF70B
:102D900076AE03992020D0470028B6DB0135F3E753
:102DA000D8EC02080C4B1A6842F400721A601A68D8
:102DB00042F480621A604FF01002EFF3118382F345
:102DC0001288BFF36F8F83F31188BFF36F8F034BAC
:102DD000034A1A6000207047003C02404C0100206A
:102DE0000024F40082B0094B002001901A6B42F4D9
:102DF00000121A631B6B064A03F400130193019B34
:102E0000536843F00203536002B070470038024039
:102E1000002004E0F8B507460C4629B9084D094ED4
:102E2000761B3611B44200DBF8BD6B685B7923B1C9
:102E30002B6839461B682846984701341035F1E75E
:102E4000D0CB0208F0CB0208014B53F820007047AA
:102E500080CC0208054A00231370054A1360054B15
:102E6000054A1A604FF47A7000F050BAF3C8002097
:102E7000784900200800002069F5010870B5124B60
:102E8000BFF35B8F53E8005F6A1C43E80021002911
:102E9000F8D1BFF35B8F2DB90C4C0D4E361B36119C
:102EA000B54200DB70BD237B53B123689B690BB136
:102EB00020469847636804221968204600F06AF8A3
:102EC00001351034ECE700BF80490020D0CB020868
:102ED000F0CB0208F8B50C4F3D784DB90B4C0C4EB9
:102EE000FFF7CCFF361B3611B54202DB01233B70E6
:102EF000F8BD63685B791BB1236820465B6998471E
:102F000001351034F0E700BFF3C80020D0CB020831
:102F1000F0CB0208014B01221A707047F2C8002062
:102F20000C4BBFF35B8F53E8001F013143E80012E5
:102F3000002AF8D1BFF35B8F58B1BFF35B8F064B0C
:102F400053E8001F013943E80012002AF8D1BFF30B
:102F50005B8F7047784900207C490020054B10B5F5
:102F60001B68044698470021A0602046BDE8104039
:102F7000FFF750BF08000020044A054B9B1AB1EB35
:102F8000D30F34BF52F831000020704750CB0208F5
:102F9000D0CB0208054A4368801A00110130012293
:102FA000187119605A71FFF7B5BF00BFD0CB020886
:102FB0000EB403B503AB014653F8042B0448019348
:102FC000FFF74CFB02B05DF804EB03B0704700BFA5
:102FD000A7F501082DE9F04F87B01C4601F0010369
:102FE00005929DF84090BDF948A004930746884695
:102FF00001F0020B01F008061CF0D3FA024600288B
:1030000040D037493846FFF7D3FF0546BBF1000FE4
:1030100008D018F0440F37D1324922463846FFF71E
:10302000C7FF0544049B53B12F4B304953F8292067
:103030002F4B3846002A08BF1A46FFF7B9FF3EB1AA
:103040002C4B2D4953F829203846FFF7B1FF06468F
:10305000BAF1000F12DB059B284C23B1284BB9F1C4
:10306000040F08BF1C4651469DF84400FFF784FF3B
:10307000214602463846FFF79BFF0644701907B009
:10308000BDE8F08F0546C1E71E4B18680028C8D080
:103090001D4B4FF47A781B68B4FBF3F44FF4616175
:1030A000B4FBF0F300FB134408FB04F44FF03C0CBA
:1030B000B3FBF1F201FB1231B4FBF0FEB1FBFCF308
:1030C00000FB1E440CFB131108FB04F40091B4FB3D
:1030D000F0F40E49CDE901E43846FFF769FFA0E7B7
:1030E000EBEC0208EFEC02088CCC0208B38C03086E
:1030F000DDEC0208A0CC020814ED0208E6EC0208A0
:10310000E2EC02088849002084490020F8EC02081B
:10311000CA0605D48B064CBF02490349FFF748BFD6
:10312000704700BF1BED02081AED02082DE9F843B5
:103130000F460899DFF8B890044616461D46FFF77B
:10314000E7FF4FF00008A84528DB76B33A78294915
:103150002046FFF72DFF01256A0703D124492046A9
:10316000FFF726FFB54225D27A5D22492046FFF7B8
:103170001FFF0135102DEFD11F492046FFF718FF23
:10318000EEB91B492046FFF713FF0125B5422B4638
:1031900017D317492046FFF70BFF1DE0494620468D
:1031A000FFF706FF08F10108CDE714492046FFF7B5
:1031B000FFFE012511492046FFF7FAFED9E7002559
:1031C0002B46FA5C0E4B0F499B5C13F0970F08BF20
:1031D0002E222046FFF7ECFE0135102D06D06B079E
:1031E000D4D103492046FFF7E3FECFE7BDE8F883DB
:1031F00025ED02081DED020827ED020823ED020867
:10320000C48F030829ED020838B5CB0705460C46E4
:1032100003D5054A0549FFF7CBFE21462846BDE800
:103220003840FFF775BF00BFDDEC0208B38C030820
:103230002DE9FF470E46904636F8102B8B6812F4A6
:10324000E07F07460D46C2F3821931D00A784868FC
:10325000C2F3C20248B32949401A40F3CF00CDE976
:103260000120CDF80090002241463846FFF7B2FE1B
:103270002B68C3F34923824623BB6C88C4F3CB0479
:1032800074B32B68C3F349231E44102C254628BF72
:1032900010253146CDF8008053462A463846FFF7C0
:1032A00045FF641B2E44F0D117E04FF0FF30D6E706
:1032B0000B68C3F34923F3B94C88C4F3CB04A4B11E
:1032C000CA46DEE70E480F4933463A461BF06DFE0C
:1032D0006C88C4F3CB04002CD3D1B9F1000F04D017
:1032E0004A4641463846FFF78FFF384604B0BDE8EE
:1032F000F0471CF080B90448CA46E4E750CB020806
:10330000A7F501085D260008C3F50108074A00215A
:103310000123904206D8064A01B901231360054BE8
:103320001860704740085B000121F2E740420F003F
:1033300084490020884900202DE9F04F85B002AF74
:10334000D7E90EA93D6B04460E4693469846BAF15E
:10335000000F35D0C7F80490CDF8009010217A6B9B
:1033600053460020FEF704FF0146164A04F0070406
:103370000BF0070BE40002EA412244EA8B141443E9
:10338000114A02EAC54217350D4425F00705ADEB99
:10339000050D144302ADBAF1000F07D0CDF800902F
:1033A0007A6B534605F11000FEF7E2FE43462246D3
:1033B000314628461CF02CF90C37BD46BDE8F08F8D
:1033C0005146D2E700FE07000000F87FF8B5074F2E
:1033D0000D4604464618B44201D12846F8BD386867
:1033E00014F8011B83685B689847F4E7A449002040
:1033F000014B002019607047A0490020014B024A90
:103400001A607047A4490020C4C60208024B034852
:1034100001221A701CF0EFB8F5C80020D4CC0208C5
:10342000064B10B518680C46FFF70EFD2146034603
:10343000BDE8104002480F22184700BFA0490020F5
:10344000D4CC0208014B01221A707047F6C8002044
:10345000014B002019607047BC490020024B034813
:1034600001221A701CF0C7B8F7C8002004CD02086A
:10347000064B10B518680C46FFF7E6FC21460346DC
:10348000BDE8104002480F22184700BFBC49002089
:1034900004CD0208F8B5194D07460E4604243246FD
:1034A0003946002018F052FFC8B101232B70144B8D
:1034B0001B782BB93046F8BD5CB92C704FF0FF3447
:1034C000002018F0B7FF0028F4D02B78002BF3D1A0
:1034D000F0E7013C41F288301AF028FEF0E72B7843
:1034E00013B1013C04D12C702B78002BD7D1E1E72C
:1034F00041F288301AF01AFEF6E700BFF6C8002045
:10350000F7C8002008B5054819F03AFB044819F03F
:1035100037FBBDE80840034819F032BB76ED0208DE
:1035200086ED0208A5ED020837B5044608460D46AB
:1035300028F0DCFC78B103786BB10346224600F139
:10354000200153F8040B42F8040B8B42F9D10023FD
:10355000E37703B030BD05F160030093034A2B46C7
:10356000202120461BF070FDF3E700BFAEED0208FE
:1035700070B50F4B0F4E5C6A8EB006AD0CB90EB035
:1035800070BDB44211D028462146FFF7CDFF94F913
:103590000E300393D4F89830049301A8D4F89C30EB
:1035A0000593CDE9014519F07DFA246FE6E700BFE8
:1035B00078C800203847002008B50649064B074A5E
:1035C000084618F0A7FFBDE808404FF0005018F07B
:1035D000D5BF00BF007A030A0535000814CD0208E4
:1035E000024B5868C0F30800704700BF00ED00E0D0
:1035F00008B51AF0C9FB054B834203D1BDE808406A
:1036000019F066BBBDE8084019F0A0BB38470020A0
:10361000014910220A60704710ED00E001B51CF06E
:103620003BF8BDE8014072B6404080F31188BFF31B
:103630006F8FBFF34F8F30BF62B6BFF36F8F70478E
:1036400070B5064686B00D46002938D08B680593C4
:103650004B6804930B68039300241C4B1C49029392
:10366000012223462046CDE900441CF017F86B697F
:1036700005932B690493EB680393164B144900944C
:10368000CDE901430122234620461CF007F8EB69EF
:103690000393114B0E490094CDE9014301222346C7
:1036A00020461BF0FBFFAB6903930C4B08490094C9
:1036B000CDE901430122234620461BF0EFFF2946B6
:1036C000304606B0BDE8704019F09CBCB5ED02086C
:1036D000B8CB0208E4ED020813EE020822EE02085D
:1036E00040B2002807DB044A4109012300F01F0013
:1036F000834042F82130704700E100E040B20028EA
:10370000A8BF00F1604001F10101B8BF064B4FEACC
:103710000111ACBF00F5614000F00F00C9B2B4BFA9
:10372000195480F80013704714ED00E030BFFFF724
:10373000FDBF00BF0F4A08B50F4B22F07F029A6011
:10374000BFF34F8FBFF36F8FD3F8882022F470023E
:10375000C3F88820EFF3148323F0040383F3148861
:10376000BFF36F8F19F0CCFC1AF07CFB00F098FBD4
:1037700019F018FD0000000800ED00E00A4A0B49AE
:1037800093680968C3F8AC100949C3F8A8004B68EE
:1037900043F080534B60002383F31188BFF36F8F96
:1037A0009368D3F8AC00704778C8002090E5020811
:1037B00000ED00E001B528F0A8FBBDE80140164986
:1037C0008A684FF030001044EFF3098C80E8F01F56
:1037D000102080F31288BFF36F8F104F4FF00066F8
:1037E0008A698A603E60D2F8A8000023C2F8A83037
:1037F00080F3118804B5104600F096FBBDE8044044
:1038000002F1300090E8F01F8CF3098801B528F030
:103810007AFBBDE80140704778C8002004ED00E065
:103820001EF0040F0CBFEFF30880EFF309808169ED
:1038300011F8021C0229FFD001B51BF03FFF01BDAA
:1038400042F8203C009B42F81C3C0A49019B42F88C
:10385000183C029B42F8143C21F001014FF08073A8
:1038600042F8043C42F8081C0023203A0265C0F8E4
:10387000A830704763F001080A4A0346906878B19F
:1038800013F1160FD0F8980005D0A0F140029A422B
:1038900005D8834203D2814228BF00207047002010
:1038A000704700BF78C8002008B50B4B04469860ED
:1038B0000E46154628F027FB204600F035FB28462B
:1038C00086F30988002163B681F31188BFF36F8FF7
:1038D000002200231BF0C5FB78C8002001B51BF0B7
:1038E000D7FEEFF30580A0F110004FEAC0000549B4
:1038F000014409C998471BF0CDFEBDE801400249CB
:10390000084700009CC702080D390008044B99685D
:103910009869884203D003494FF080520A6070478B
:1039200078C8002004ED00E0F0B585B000243B4BE2
:103930000293CDE90044234607460E46012238494A
:1039400020461BF0CAFE374B9B6ADB0409D5364B79
:1039500033490094CDE901430122234620461BF060
:10396000BCFE304B9B6A1D0509D5304B02930023EA
:10397000CDE900332A49012218461BF0AEFE294D3D
:10398000AB6A9C051ED50024294B029301222346D5
:103990002046CDE9004422491BF09FFEAB6BAA6A8A
:1039A00010040FD50393234B1D490094CDE9014327
:1039B0000122234620461BF090FE1FB1AB6A23F480
:1039C0000043AB62174B9B6A590509D51A4B02930A
:1039D0000023CDE900331249012218461BF07DFE79
:1039E000104A936A13F4807312D0144B029300238D
:1039F000CDE900330A49012218461BF06EFE094A40
:103A0000936A002043F47F439362307005B0F0BDA9
:103A1000926A9204F3D50A4A0292E9E750EE02084C
:103A2000B8CB020800ED00E066EE020877EE02086F
:103A30008AEE0208A3EE0208B8EE0208D3EE0208EE
:103A4000EBEE02081FB50024334B0293CDE900448E
:103A500023463249012220461BF03FFE304B9B6A31
:103A60009B0109D52F4B2D490094CDE9014301223B
:103A7000234620461BF031FE294B9B6ADC0109D509
:103A8000294B02930023CDE9003324490122184633
:103A90001BF023FE224B9B6A180309D5234B02938C
:103AA0000023CDE900331D49012218461BF015FE05
:103AB0001B4B9B6A590309D51D4B02930023CDE98B
:103AC00000331649012218461BF007FE144B9B6A6F
:103AD0009A0309D5174B02930023CDE900330F4910
:103AE000012218461BF0F9FD0D4B9B6ADB0309D53B
:103AF000114B02930023CDE90033084901221846F7
:103B00001BF0EBFD064A936A6FEA03436FEA134327
:103B10000020936204B010BD1AEF0208B8CB02086F
:103B200000ED00E032EF020845EF02085FEF020807
:103B30007DEF0208A2EF0208BCEF02082DE9F04376
:103B400085B00024494B0293CDE9004423468046CA
:103B5000894620464649164601221BF0BEFD454BCC
:103B60009B6AD80609D5444B41490094CDE90143ED
:103B70000122234620461BF0B0FD3E4B9B6A1907ED
:103B800009D53E4B02930023CDE900333849012289
:103B900018461BF0A2FD374DAB6A9A0736D46FF07A
:103BA0001507344B9B6ADD0709D5354B029300237B
:103BB000CDE900332E49012218461BF08EFD2D4B16
:103BC0009B6A9C0609D52F4B02930023CDE9003355
:103BD0002749012218461BF080FD264CA36AD8060F
:103BE00036D4A36A990733D40020A36A214A9B06DE
:103BF00042BF636A23F400536362936A43F0FF0396
:103C000093620023337005B0BDE8F08300241E4B9F
:103C10000293CDE9004423461549012220461BF0BA
:103C20005CFD6F6BAB6A1B06B9D5184B1049039747
:103C3000CDE9014300942346012220461BF04DFDAF
:103C4000B9F1000FADD0AB6A23F08003AB62A8E7F7
:103C500063681A05C8D541463846FFF70DFE0028AF
:103C6000C2D080F309880220BFE700BFE7EF020857
:103C7000B8CB020800ED00E0FDEF020877EE020885
:103C80005EF00208EBEE020830F0020848F002088D
:103C90002DE9F0416D4B5F6890B00446C7F308060C
:103CA000002383F31188BFF36F8F02F07F40B0F1E0
:103CB0007F4F0CD102F00C00082819D1644A6549E5
:103CC0000093CDE90132184601221BF006FD0025C4
:103CD0002C464FF00008F31E8DF81F80092B00F2D0
:103CE0009B80DFE803F00B8F938B999999999997B3
:103CF000120746BF0C461D460125EAE7564B534FB7
:103D00005449CDF80080CDE90183002301221846F3
:103D10001BF0E3FCFE6A8DF81F8016F0020605D04A
:103D20004E4BCDF80080CDE9018306E0FB6A002B05
:103D30000BDA4B4B0096CDE9016300234549012284
:103D400018461BF0CAFC00222BE0FB6A5B00FAD588
:103D5000444B40490096CDE9016301223346304689
:103D60001BF0BBFCA36933F8022C4DF602739A4298
:103D70000AD097F82830002B33D00DF11F02012113
:103D80002046FFF7DBFE3BE023680393364B3149C7
:103D90000096CDE901630122334630461BF09DFCBD
:103DA00022689DF81F30CBB908AE04F120072068C7
:103DB0006168334603C30834BC421E46F7D10F9BEB
:103DC000002D3DD0C3F3080121B96FEA53236FEAF8
:103DD00043230F9308A91046FFF732FC10B0BDE84B
:103DE000F08197F829302BB10DF11F010120FFF769
:103DF0009BFD05E07B8D9BB2002BA4D0FFF722FE3C
:103E00000246CEE70DF11F020021B9E70DF11F01B7
:103E10000020ECE7154B84E7154A164B0D4917F4C3
:103E2000F87F18BF1346103ECDE90336124B0293BC
:103E30000023CDE90033012218461BF04EFC82E737
:103E400023F4FF7323F00103C3E700BF00ED00E09C
:103E5000ABF00208B8CB0208D6F00208EDF0020879
:103E60000EF102081CF102083BF1020857F10208AA
:103E700092F002087DF002087BF10208024A5369C1
:103E800043F010035361704700ED00E0EFF308804A
:103E9000EFF3098101B57246FFF7FAFE01BD00BFDD
:103EA000044800231021C21801335B2B82F8001351
:103EB000F9D1704700E100E0102080F31188084834
:103EC0004FF40461401880F30988EFF31480022155
:103ED000084380F31488BFF36F8FFFF72BFC0000BB
:103EE000C0100120084B9B6883420BD1EFF3058380
:103EF00043B1064B5A6842F080525A605A6A22F423
:103F000000425A6219F046BF78C8002000ED00E078
:103F1000024B034A0348012100F088B80000032047
:103F2000000000201CCD0208D0F89820054B403A34
:103F30001A60054A4021C3E901121846012100F028
:103F40007FB800BFC049002000000B15F0B5284E17
:103F500085B000258D4215DA4468002C45D0D3B1D8
:103F600004F1FF3C14EA0C0F0FD0224B039502938F
:103F700000230122CDE900331F4918461BF0BDFB89
:103F80006FF01502104605B0F0BD1F2CEDD9076883
:103F90001CEA070FE9D1202C0768D0F808C05FFAA7
:103FA00082FE10D9B4F1004F0FD8013CB4FA84F46A
:103FB000C4F11F046400BEF1070F4CEA040C06D9DB
:103FC0000E4B0392D3E70824F5E73E24F3E727F0EE
:103FD0001F04144344F01004C6F89820C6F89C400F
:103FE0004CF00104C6F8A040013201350C30B1E7B5
:103FF00000ED00E092F10208B0CB0208B5F1020832
:10400000044B0522C3F89420BFF34F8FBFF36F8F8B
:10401000704700BF00ED00E0BFF35F8F024B00224E
:10402000C3F89420704700BF00ED00E010B5034CCA
:1040300001232278FFF78AFF207010BDF9C8002005
:1040400008B5094A00231278FFF780FF10F1160F18
:1040500003D0064B0022072800DD08BDC3F89800F6
:10406000C3F8A0200130F6E7F9C8002000ED00E019
:1040700014490868082810B521D8FFF7CDFF124C65
:1040800049680022904201F10C0105D10F4B1870D4
:10409000FFF7B6FF002010BDC4F8982051F80C3C83
:1040A00023F01F03134343F01003C4F89C3051F86E
:1040B000043C43F00103C4F8A0300132E2E74FF0C2
:1040C000FF30E8E728CD020800ED00E0F9C8002045
:1040D000014B1860704700BF0C000020F8B50A4F74
:1040E0000D46461EC0F10104A3199D4201DC28467D
:1040F000F8BD73780A2B02D13B680D2098473B68C6
:1041000016F8010F9847EFE70C00002010B5074C98
:104110002368C2180648C0F1005101F540318A42B7
:104120003ABFC01822604FF0FF3010BDCC490020CC
:10413000C02A012008B51D210448FFF7CFFF4040E9
:1041400080F311884FF0030002DF00BFDBF10208AB
:1041500010B501F017FBBFF35B8F064B53E8002F40
:104160000549511843E80014002CF7D1BFF35B8FC9
:10417000104410BDD049002003CA9A3B2DE9F843F2
:104180000D4F04460E4615464FF0010802F1040992
:10419000B44201DBBDE8F8837A6908FA04F333EA34
:1041A000020207D17B6155F834301BB159F8341045
:1041B000204698470134EBE7003C0140044A0123C4
:1041C000116883400B431360024B1856FFF788BAFF
:1041D000003C014026F202081F2806DC03490122A8
:1041E0000B68824023EA02030B607047003C0140E9
:1041F00003292AD8DFE801F0020E141F134B012215
:104200009968824021EA02019960D96821EA020294
:10421000DA6070470D4B0122996882401143F3E741
:104220000A4B0122D96882401143D960996821EA7A
:1042300002029A607047012303FA00F0034B9A6868
:1042400002439A60DA681043D8607047003C01402E
:10425000074B10B5044653F8300028B943F8341022
:1042600003EBC4035A6010BD6FF00F00FBE700BF03
:10427000D4490020034B002243F8302003EBC00355
:104280005A607047D449002009680C4B40291B68CC
:104290000DD008D821F00400302809D0382907D0E3
:1042A0006FF085007047442905D0A829F7E79B08DF
:1042B0001360002070475B08FAE700BF4C01002044
:1042C00070B53A4C3A4E00F08DF801F0B7FAA36899
:1042D000384AC3F30313D35C20FA03F5B54202D87E
:1042E000354801F045FB236823F4802323602368CD
:1042F00043F4803323602D4B1A689403FCD59A68ED
:1043000002F00C02082A17D19A6822F0F0029A6093
:104310001A68900707D41A6842F001021A60234A0B
:1043200013689907FCD5214B9A6822F003029A6022
:104330009A6812F00C0FFBD11C4C236823F0807399
:104340002360636823F0706343F0E063636000F010
:1043500037F8236843F08073236023689B01FCD502
:10436000A36823F0F003A360A36823F0030343F0E2
:104370000203A3600D4CA36803F00C03082BFAD1D1
:10438000B54202D90C4801F0F3FA0C4B0A4A1A6004
:10439000A36823F4E05343F4A053A360A36823F479
:1043A000604343F40043A360002070BD0038024026
:1043B000FF79030A12F80208007A030A4C01002070
:1043C000054B06495A681140054A0A435A605A6823
:1043D00022F440325A607047003802400080BFFF2C
:1043E00008544000064B1A6C42F080521A641B6C51
:1043F00082B003F080530193019B02B0704700BF6D
:104400000038024010B5044C2046FEF7ABF82046B9
:10441000FFF75EFE002010BD1D4400082DE9F341AA
:10442000DFF85C80174E8DF80700044603254FF037
:10443000FF334FF0FF32404619F03CF801220DF1F6
:104440000701002017F0CAFF0746404619F0BEF8E2
:104450002FB101233370204602B0BDE8F0813378DC
:10446000002BF8D0013D08D027F03AFD0028DED11E
:104470000021142019F05AFCD9E73570EBE700BF92
:1044800000030020FAC8002008B5084B084818604F
:1044900027F0FFFC38B10748FFF71AFE0548FEF782
:1044A00061F8002008BD6FF01200FBE78C4A002085
:1044B000C4C60208B94400080A2838B5074D0446A6
:1044C00004D1286883680D215B6898472868836851
:1044D000E1B25B689847204638BD00BF8C4A002097
:1044E0001FB5074B029300231846CDE90033054959
:1044F00001221BF0EAF96FF0850005B05DF804FBBE
:104500004AF2020860CB02081FB50024064B029352
:104510002046CDE900440549234601221BF0D5F988
:10452000204604B010BD00BF60F2020860CB020854
:104530001FB5074B029300231846CDE90033054908
:1045400001221BF0C2F96FF0850005B05DF804FB95
:1045500088F2020860CB02081FB5074B02930023C4
:104560001846CDE90033054901221BF0AEF96FF082
:10457000850005B05DF804FBA7F2020860CB0208D5
:1045800070B51029056986B00C460FD001291DD0E1
:10459000104B029300231846CDE900330E49012247
:1045A0001BF093F96FF0850006B070BD552302260D
:1045B0008DF817300DF1170201233A211BF0B4F9E1
:1045C0000028A2BF6C702E700020EDE76623032642
:1045D000EEE700BFC2F2020860CB02087FB5466872
:1045E0000546306827F055FC70B95B4B02930023F9
:1045F000CDE900335949012218461BF066F96FF0E6
:104600001204204604B070BDF36823B1186827F087
:1046100040FC0028E9D0306927F03BFC034630B964
:104620004F4A4E490093CDE901320122E5E74FF4AC
:10463000003106F110001BF00EF9041E0BDA494B95
:10464000039402930023CDE9003344490122184624
:104650001BF03BF9D5E7B06980B127F01AFC03469F
:1046600008B9414ADDE74FF4B01106F118001BF01C
:10467000F2F8041E02DA3D4B0394E2E76C68A3698A
:1046800083B11834012120461BF03AF900210A2099
:1046900019F04CFB002120461BF032F9322000219A
:1046A00019F044FB00231A46012128461BF03CF96F
:1046B000041E02DA2E4B0394C3E70021322019F0C6
:1046C00035FB28461BF0F1F96E6896F82030002B78
:1046D00014BF012110212846FFF752FF041E14DBEE
:1046E000718C29B15A2913D0B42914BF0321022196
:1046F00028461BF044F9041E07DB96F828304BB916
:10470000336B28469847041E0DDA1A4B039498E73A
:104710000121EDE700231A46212128461BF004F968
:10472000041EEDDAF1E7002328461A4611211BF09A
:10473000FBF8041E4FF0000506DB4FF496600021E5
:1047400019F0F4FA2C465CE70B4B0394CDE90153C6
:1047500000952B4679E700BFDBF2020860CB020828
:10476000F3F2020816F3020841F302085DF30208AF
:1047700081F30208ACF30208CDF3020870B5456876
:104780000669AB6886B093B105F108001BF0F5FA35
:10479000041E0CDA3D4B02930023CDE900333C4963
:1047A000012218461BF0D9FA204606B070BD2B69CD
:1047B0003BB105F110001BF0E0FA041E01DA354BA5
:1047C000E9E7286A05AA00211CF0F0F8041E07DBBF
:1047D000059B00221979186800F0EAFF041E01DA2F
:1047E0002D4BD8E718352D4C204627F052FB40B111
:1047F000A36820461B6829469847041E04DA284B04
:10480000C9E76FF01204FAE7264B1A6822F08052CB
:104810001A605A6822F4800222F03F0242F48002B9
:1048200042F008025A60D3F888101F4A0A4042F04A
:10483000804242F44052C3F88820D3F88C2022F4FE
:10484000403242F40032C3F88C201A6842F08052A1
:104850001A601A689200FCD55A6A42F080625A6265
:104860005A6A22F080625A624FF40473A6F8A830A4
:10487000304601F011F80446002895D1024606F1B1
:10488000380130461CF031F904468DE755F4020832
:1048900068CB020889F40208C0F402088CC502083B
:1048A000DAF40208003802403F80FF8F70B50546F9
:1048B000074C204627F0EDFA30B1A3682946204680
:1048C0001B68BDE8704018476FF0120070BD00BF54
:1048D0008CC50208F7B51746B7F5001F4668026990
:1048E0000C461D4624D101F00302043292000F232E
:1048F000934043EA9103DAB23249023251F822205E
:10490000190C02EA134391FAA1F2B2FA82F2D340EF
:10491000B2689A4209D12046FFF75EFC2046FFF7B5
:10492000A9FC00212046FFF763FC002003B0F0BD86
:10493000B7F5800F3FD024492046FFF789FC0028B7
:104940003CD1224AB66892E803006B4683E8030034
:104950001846FFF7ABFFC0B904F0030304339B0014
:104960000F229A4042EA9402D3B29B0003F18043A3
:1049700003F59C33110C986820EA124091FAA1F2D9
:10498000B2FA82F2964006439E60B5F1806F0ED077
:10499000B5F1C06F0DD005F17E4359425941490030
:1049A0002046FFF725FC2046FFF708FCBDE7012164
:1049B000F6E70321F4E76FF08500B7E76FF00F002B
:1049C000B4E700BF00380140E3FF0108F0CB020864
:1049D00002694368926ADB68C2F34202012A10B599
:1049E00004D0022A21D06FF0150010BD58681F4A6C
:1049F000B1FBF2F220F03F0010435860186A013218
:104A000020F03F0002431A62194AB1FBF2F140F66E
:104A1000FC72114208BF0421DA6922F44F4222F0ED
:104A2000FF020A43DA610020DFE758680F4AB1FB52
:104A3000F2F220F03F0010435860186A4FF4967469
:104A4000624320F03F004FF47A74B2FBF4F201327B
:104A500002431A62074A914289BF013248F20101BA
:104A6000B1FBF2F141F40041D6E700BF40420F0034
:104A7000400D03007F4F12002DE9F0434768D0F846
:104A80001090FE6887B0002205460C460592043758
:104A9000DFF87880404627F0FCF978B91C4B029388
:104AA0000023CDE900331B49012218461BF05DFDB0
:104AB0006FF00405284607B0BDE8F083D8F8083049
:104AC000DB68002BEAD005AA394640469847002803
:104AD000E4DBC9F8284009F114094FF0FF324FF028
:104AE000FF33484618F0ECFD3368059923F00103C5
:104AF0003360336823F01A0333602846FFF768FFFA
:104B00000546484618F0B2FDD4E700BF8CC5020840
:104B10006FF5020878CB0208F0B54568076987B0E1
:104B200006464FF0FF320021384627F004FA2B6882
:104B300030469847686905AA00211BF037FF041E1C
:104B400007DB059B00221979186800F031FE041E6E
:104B50000DDA354B02930023CDE90033334903943A
:104B6000012218461BF001FD204607B0F0BD0122CE
:104B7000114607F1140027F0DEF92F1D2C4C2046BA
:104B800027F087F960B92B4B02930023CDE900335E
:104B90002649012218461BF0E8FC6FF00404E3E705
:104BA000A36820461B683946984704460028EAD186
:104BB0002B69214A93422FD023D8204A93422DD0EB
:104BC0001F4A93422CD000251E4B0293CDE900557D
:104BD00016492B46012228461BF0C7FC45F0100160
:104BE0003046FFF749FF051EBEDA174B029300233C
:104BF000CDE900330D49012218461BF0B6FC2C46C6
:104C0000B2E7124A93420DD002F5C31202F52062B8
:104C10009342D8D10A25E1E70625DFE70225DDE743
:104C20000425DBE70825D9E792F5020878CB0208CE
:104C30008CC50208B0F5020840420F00A0860100B2
:104C4000801A0600CCF50208E7F5020840E13300BF
:104C50002DE9F04145680669EF6888B03D4C204673
:104C600027F017F9A0B1A36820461B68394698477A
:104C7000041E10DA384B02930023CDE90033374984
:104C8000012218461BF011FD204608B0BDE8F08156
:104C90006FF01204EEE7686807AA00211BF086FE99
:104CA000041E07DB079B00221979186800F080FDBD
:104CB000041E0BDA2A4B02930023CDE90033274967
:104CC0000394012218461BF0F0FCDDE7B5680127CC
:104CD000D6E9023203EBC2039D4204D330461BF0F7
:104CE0002AFD0024D0E7286827F0D3F8034678B9D6
:104CF0002A7904922A68194912680392194A009085
:104D0000CDE9010201221BF0D0FC6FF01204BBE7D9
:104D100028682979EB88D0F810C0D0F80880DCF832
:104D20000040DA0754BF43F4B01383F4D01323F4E4
:104D3000801207FA01FEDB074CBF44EA0E0424EAA6
:104D40000E04CCF80040D8F800309847041E9BDBD6
:104D50000835BDE78CC5020820F60208C0CB020862
:104D60003BF6020859F602082DE9F04F1F4643684A
:104D700004691E6893B08346884691460AB9002F9D
:104D800037D0B8F80430990437D44FF0FF324FF0E1
:104D9000FF3304F1100018F093FCC4F80480DFF82E
:104DA0009CE2DBF810300693BEE80F000AAD0FC599
:104DB0009EE80F0085E80F00069BDBF804C01B6827
:104DC000DCF80050984500F0C580B8F80430C3F313
:104DD0004512082A18D0102A16D06FF085072368CC
:104DE0009B8813F4005304D1636004F1100018F0A1
:104DF0003DFC384613B0BDE8F08FA369002BC4D149
:104E000063689845C1D1CAE713F4004F6B68DCF8BA
:104E10000C1014BF43F0100323F010036B600791D4
:104E2000DFF81CA2504627F034F8079960B9854B8B
:104E300002930023CDE900338349012218461BF079
:104E400034FC6FF00407CAE7DAF80830DB68002B9F
:104E5000EDD009AA504698470028E8DB099AD8F80F
:104E60000010012322FA03F0884214D90133092BE0
:104E7000F8D1130A0593754B029352080023CDE92C
:104E80000312CDE900337049012218461BF00DFCD6
:104E90006FF01507A3E72A6812A922F040022A60E2
:104EA00001EB83032A6853F8243C22F038021343B1
:104EB0002B60B8F804309A0703D42A6822F0020263
:104EC00002E02A6842F002022A602A6858074CBFB2
:104ED00042F0010222F001022A602A6822F44442D0
:104EE0002A602A68D9064CBF42F0800222F0800274
:104EF0002A602A6822F400522A60D8F8082003F0B9
:104F0000010162B12A6842F400722A606A6822F0E4
:104F100004026A6069B92A6842F482720CE02A6865
:104F200022F40072002972D02A606A6822F004021A
:104F30006A602A6822F482722A60C3F34513082B40
:104F40002B680CBF23F4006343F400632B60069BC3
:104F5000C3F80080B9F1000F61D1C4F83C90002380
:104F6000236404F1400504F13C0304F15008069366
:104F700042460123294604F13C001BF082FBE06419
:104F8000002F54D16764002304F1440904F1480A56
:104F900004F15807A3643A460123514648461BF0E2
:104FA00070FB3168606541F040010022A263DBF8CC
:104FB0001000316019461BF09CFB23689B8813F09E
:104FC000010140F0DB80B2689007FCD5C3F34513C4
:104FD000082BE26C40F0A28012B1236D03B111786E
:104FE000C9B23173236D002B36D0013B2365002BF2
:104FF0002ED1E36B0833E363236C013B236401236D
:105000000698424629461BF03CFBE06424E042F44B
:1050100080222A606A6842F004026A607BE7D9F85D
:105020000030E363002B9AD0D9F8043098E73B684E
:105030006364002BA7D07B68A6E700BFF8CB02080B
:105040008CC502087DF60208C0CB0208A9F602084A
:10505000E36C0BB10133E364B368D907FCD5226874
:105060009288C2F34512082AD4E9153173D1327BF4
:10507000D2B20BB101B11A70A36D8BB1013BA36524
:10508000002B40F0C880636C08336364A36C013B61
:10509000A36401233A46514648461BF0F2FA606584
:1050A000B36813F4B87300F0C5800493664B0393A0
:1050B000664B02930023CDE900336549184601226F
:1050C0001BF0F3FAB368590605D5F3680993099BF9
:1050D000B3680993099B6FF00407DBF80430DBF831
:1050E00010001D68002211461BF003FB2B6803F41F
:1050F0008273B3F5827F02D1AB681A06FCD4AB6829
:105100009B0606D5AB680A930A9B2B6823F04003E5
:105110002B602B6823F040032B6060E6236D7AB18F
:105120000BB9B38198E71188B181013B23657BB945
:10513000E36B0833E363236C013B236402235FE7E3
:10514000B281002B88D0013B2365002B84D1EFE78F
:105150000232E26480E7F2680BB101B11A80A36DFC
:10516000002B9DD0013BA365002B5DD1636C083300
:105170006364A36C013BA36402238BE7B2689207CC
:1051800044D5216D002941D0C3F34513082BE26CAF
:105190002CD113783373236DA3B1013B23656BB915
:1051A000E36B0833E363236C013B2364012306981C
:1051B000424629461BF065FAE06403E0E36C0BB15C
:1051C0000133E364B368D8077FF56AAF636D002BE2
:1051D0003FF466AFA26D002A3FF462AF2268928866
:1051E000C2F34512082A1DD1327B44E71388B381EC
:1051F0000139216539B9E36B0833E363236C013B63
:1052000023640223D3E70232E264DBE7736823F00E
:1052100080037360D6E7636D002B3FF441AF013329
:1052200063653DE7F26899E7636D002B3FF438AFA3
:105230000233F5E7236D002B7FF4BFAEA36D002B87
:105240007FF4BBAE1F4648E7E3F60208D8F6020833
:10525000C0CB020830B5456887B0E86805AA0021D0
:105260001BF0A4FB041E07DB059B002219791868BC
:1052700000F09EFA041E0DDA114B039402930023F2
:10528000CDE900330F49012218461BF06AFA204687
:1052900007B030BD04350C4C204626F0FAFD48B16D
:1052A000A36820461B6829469847041E05DA074B69
:1052B0000394E3E76FF01204F9E70024E7E700BF87
:1052C00008F70208A0CB02088CC5020826F70208DE
:1052D000F0B5036946685C68776887B00D4620467C
:1052E00026F0D7FD58B9184B02930023CDE90033BF
:1052F0001649012218461BF00AFB07B0F0BDA3684F
:10530000DB68002BEFD005AA3946204698470028D5
:10531000E9DB34680598E368192123F40043E3606E
:10532000AA00AB0FA0FB0101FBF7DEFC6422B0FB7F
:10533000F2F102FB11031B013233B3FBF2F303EB77
:1053400001139BB2A360D8E780F70208C8CB02081C
:105350002DE9F04145680769414CD5F804807C602F
:1053600086B00646204626F094FDA0B1A3682046EC
:105370001B6841469847044680B13A4B029300238C
:105380001846CDE90033384901221BF0C0FA204607
:1053900006B0BDE8F0816FF01204EEE7014605AA01
:1053A000A8691BF003FB0028F2DB059B2246197954
:1053B000186800F0FDF90028EADB2A68D36823F4B6
:1053C0000053D36002F10C0353E8003F43F00C0399
:1053D00002F10C0141E80034002CF3D12B69022BBF
:1053E00033D0012B36D023BB00222968CB6822435F
:1053F00023F4B0531343CB600B6923F440530B6188
:105400002B7B2BB173681A68536943F44073536163
:1054100039683046FFF75CFF2A7D2B681AB15A695C
:1054200042F008025A61DA6842F40052DA60002061
:10543000AEE703930D4B0C490094CDE901430222E2
:10544000234620461BF063FACEE74FF480524FF418
:105450008064CAE74FF480524FF4C064C5E700BFD0
:105460008CC50208AEF70208C8CB0208CEF70208C6
:105470002DE9F0410B7945680669012B0C466FD088
:105480009A1E514251418902627994F80680022A9B
:1054900096BF454F4FF4005C37F812C0B8F1040FC7
:1054A0006CD0E779002B5ED1012F22F0020273D07D
:1054B000002A63D0B8F1020F60D99E462A688FB1E6
:1054C000DFF8E88042450BD0A8F54C48424507D0AC
:1054D00008F58068424503D008F54C4842454DD157
:1054E000012F4BD1D76827F40057D760D76807F44E
:1054F000C067B9421FBFD76827F4C0673943D1607E
:10550000116901F440518C451FBF116921F44051CC
:1055100041EA0C011161D16801F4805199421FBF29
:10552000D16821F480510B43D3605369216803F49F
:1055300040739E451FBF536923F4407343EA0E0333
:1055400053613368994203D0FFF7C2FE236833608A
:105550002A68D36843F40053D3600020BDE8F0818B
:105560004FF4C06190E7033B012FDBB209D1012B5F
:1055700004D94FF4407E12F0FD0F07D16FF0850083
:10558000ECE7012BFAD94FF0000EF4E7B8F1020F67
:10559000F4D94FF4805391E7002AEFD0B8F1020F0D
:1055A000ECD94FF4407E89E7C4E7020800100140BF
:1055B0004FF0E02310B59A6919699869094B11F405
:1055C000803F094901D1824206D21A680C68224400
:1055D0001A604FF0E02212691B680A681344181A17
:1055E00010BD00BF3C4C0020484C0020094B10224D
:1055F00083F82320084B44F29F121A60074B0020C7
:1056000018604FF0E0235A6198611A6942F007026E
:105610001A61704700ED00E0484C00203C4C00202F
:1056200008B5FFF7C5FF0C4B0C4A18681168084411
:10563000106000221A600A4A136844F2A011C01ACE
:10564000B0FBF1F001FB0033136018F0FBFCBDE888
:105650000840FEF75BB900BF3C4C0020444C0020E2
:10566000404C00202DE9F041324E002955D0421C1B
:105670000AD14FF0E022136923F0010313614FF0C8
:105680007F433360BDE8F081356801284BDD40F28F
:10569000E538404501DC00F1FF384FF01003EFF32F
:1056A000118483F31288BFF36F8FFFF781FF224FBE
:1056B0004FF0E0230021D3F818C03B68C2181F4BFD
:1056C00019601F4B1B68D11A30D444F2A01000FBA4
:1056D000081101F583419B1A1F31B1FBF0F100FB6A
:1056E000013340F21A418B4220D916498B4228BF20
:1056F0000B464FF0E02133608869013B4B6100238A
:105700008B618445ACEB000338BF5B191A443A60E7
:1057100084F31188BFF36F8FB4E7431C3568B4D1AD
:1057200040F2E530B7E74FF00008B6E740F21A4321
:10573000DFE700BF484C0020444C00203C4C0020D8
:10574000404C00202094FF0010B54FF01003EFF301
:10575000118483F31288BFF36F8FFFF729FF074B84
:10576000074A1B6812689B1A034484F31188BFF32D
:105770006F8F44F2A010B3FBF0F010BD444C00203A
:10578000404C002010B54FF01003EFF3118483F369
:105790001288BFF36F8FFFF70BFF044B1B68184491
:1057A00084F31188BFF36F8F10BD00BF444C0020FD
:1057B0002DE9F047204F044600EBC1060025B44216
:1057C00001D1002014E02268D10602F01F0911D493
:1057D000656845F02005C2F3471AC2F343220A2A3E
:1057E00027D857F82280B8F1000F11D16FF01200BE
:1057F000BDE8F087B9F1100F08D0B9F1110FEAD167
:1058000065682B05E7D545F01005E4E73025E2E7AC
:10581000404626F03EFB0028E8D04B462A460AF0D8
:105820000F0140461AF0F4FB002804F10804C6DA20
:10583000DEE76FF01500DBE7DCD20208134908B59C
:105840008B6803F00C03042B1CD0082B1CD14A6876
:105850004B68496813F4800314BF0D480D48C1F329
:10586000881118BF002302F03F02A1FB0001FBF7E3
:105870003BFA064B5B68C3F3014301335B00B0FBAB
:10588000F3F008BD0248FCE70248FAE7003802409E
:1058900000127A000024F40038B50446002863D0D2
:1058A00090F8A13003F0FF021BB980F8A0201BF094
:1058B0001BF9022384F8A13023689A6922F0704210
:1058C0009A61D4E901200243E068996902432069A2
:1058D00002430A439A619A68244960690A409A60BF
:1058E0009A6842EA0042A06902439A60DA68E06975
:1058F0000A40DA60DA6842EA0042206A0243DA606B
:105900001A69606A0A401A611A6942EA0042A06A8A
:1059100002431A615A690A405A615A69E16A42EAC5
:105920000142216B0A435A61DA6A94F8350094F80F
:10593000361002F07F42DA62DD6A94F834202A439E
:1059400042EA002242EA0142DA625A6B42F006025F
:105950005A639A6942F001029A6100200123C4F857
:10596000A40084F8A13038BD0120FCE700F800F065
:10597000002800F0C180614B1A6802F44042B2F581
:10598000404F4FD102F10F6202F58C52904208D97C
:105990001A681B6803F44043B3F5804F4FF00503CA
:1059A0003EE0574A90421ED8564A904223D8564A63
:1059B000904228D8554A90421A6802F4404243D98E
:1059C000B2F5004F40F08C8001234C4A126802F47B
:1059D0004042B2F5804F40D14B4A904264D9012BEE
:1059E00038BF012339E01A6802F44042B2F5004F93
:1059F00066D104230EE01A6802F44042B2F5004F6B
:105A000066D1032306E01A6802F44042B2F5004F63
:105A10004ED10223394A126802F44042B2F5804F57
:105A20001BD1DCE71A6802F44042B2F5004F2ED1D8
:105A300002F10F6202F5A3429042AAD8344A904282
:105A40001DD81B68002308E0B2F5004FF9D1304A99
:105A50009042F6D9294B1B6804232E490A6822F08C
:105A60000F021A430A600A6802F00F0293421CBF39
:105A70000A6802F00F02981A18BF01207047224AE4
:105A800090421DD8214B9842E4D904239DE71B681E
:105A900003F44043B3F5804FD4D11A4B984227D832
:105AA000194B984226D80023184A9042D5D996E738
:105AB0001B6803F44043B3F5804F4FF00203AFE798
:105AC0001B6803F44043B3F5804F4FF00403A7E78E
